:0400000080311C2807
:100008007E1480318B1E09280A281A280B1D0D28FA
:100018000E281A280B110630200095000130AD0774
:100028000030AE3D0030AF3D0030B03D7E100900DD
:1000380080311E282000AD01AE01AF01B0017E1055
:1000480020008031B6288031EC20803173082000F0
:10005800AB007208AA007108A9007008A800462819
:1000680029009E137908F1007808F00081310021F9
:10007800803129009E177908F1007808F000813155
:10008800002180317A082000A0007B08A100A2018D
:10009800A3018031EC208031200028087002A400E0
:1000A8002908713BA5002A08723BA6002B08733B60
:1000B800A70023082702031D6B2822082602031D18
:1000C8006B2821082502031D6B2820082402031C25
:1000D8006E286F28342829009E13080081311221C8
:1000E80080310530F1000F30F000F130890B7A28AB
:1000F800F00B7A28F10B7A28000021008E112300DA
:100108008E1122008E1155303C008F00AA308F00CE
:100118008F013D001408E0390338940055303C0045
:100128008F00AA308F0001308F0021000C122300AD
:100138000C12803029009C009B011E101E121F0803
:10014800F03901389F009E1321009512951115086A
:10015800F839043895000630200095000B118B16ED
:100168008B1708008031722080312000AC012C08E8
:10017800FC00FD01FC35FD0D1B307C0784000130BF
:100188007D3D80388500003FF800013FF900FA30D6
:10019800FA000030FB008031272080310130FC005C
:1001A8007C082000AC0704302C02031CDC28DD2866
:1001B800BB2822008E150B30FC006230890BE22828
:1001C800FC0BE228003222008E11B92880311C284D
:1001D8008B1320003008F7002F08F6002E08F500D2
:1001E8002D08F4008B177708F3007608F2007508DD
:1001F800F1007408F00008000529003200320032CE
:1002080000320130F0020030F13B700A031D102962
:10021800710A031D1029112901290800210019104C
:100228009910991119169916191799170800B434C5
:10023800043470340434B4340434EC340534FA34FB
:02024800003480
:020000040001F9
:04000E00A419FF1E14
:00000001FF
