:0400000080311D2806
:100008007E1480310B11200095010130F00700307B
:10001800F13D7A3070067104031D1328142819283D
:1000280022008F14F001F1011B2822008F107E108E
:10003800090080311F28F001F1017E102000803175
:10004800382880314A20803121008F1022008F10FB
:1000580021000D1423000D10210095129511073071
:1000680095048B168B1708008031252080310310EA
:1000780020000D1C031403184228452822008F1461
:10008800472822008F103B2880311D282100191095
:0E009800991099111916991619179917080041
:020000040001F9
:04000E00A419FF1E14
:00000001FF
