:08000000803102288731F22F44
:100F54008731C62787316300AD2F803102282100F5
:100F6400191099109911191699161917991708003B
:100F74006400800101310130FE020030FF3B7F0834
:100F84007E04031DBB2F00348731B1278731210034
:100F94000C1423000C1421000C1523000C15210043
:100FA4008C1155303C008F00AA308F000F103D008B
:100FB4001308E0391638930055303C008F00AA30EE
:100FC4008F000F1421008C1122009117111211159A
:100FD400111091159114C7309205F830920508004C
:100FE400F0308400243085000030FE000330FF0020
:100FF4008731BA27873120008731AA2F0034003483
:10100400003400340034003400340034003400343C
:101014005F340034003400340034003400340034CD
:1010240007340034073400340034003400341434FA
:101034007F3414347F3414340034003400342434C2
:101044002A347F342A3412340034003400342334F4
:1010540013340834643462340034003400343634D5
:1010640049345534223450340034003400340034CC
:1010740005340334003400340034003400341C34A8
:101084002234413400340034003400340034413418
:1010940022341C3400340034003400340034083466
:1010A4002A341C342A34083400340034003408341C
:1010B40008343E3408340834003400340034A03496
:1010C4006034003400340034003400340034083414
:1010D40008340834083408340034003400346034EC
:1010E40060340034003400340034003400342034DC
:1010F40010340834043402340034003400343E34F0
:101104005134493445343E3400340034003400341E
:1011140042347F34403400340034003400346234C8
:1011240051344934493446340034003400342234D0
:1011340041344934493436340034003400341834EA
:10114400143412347F34103400340034003427341F
:1011540045344534453439340034003400343C34A7
:101164004A344934493430340034003400340134CE
:101174007134093405340334003400340034363413
:1011840049344934493436340034003400340634A4
:101194004934493429341E340034003400340034D2
:1011A400363436340034003400340034003400342F
:1011B400AC346C340034003400340034003408346B
:1011C40014342234413400340034003400341434F0
:1011D40014341434143414340034003400344134DA
:1011E400223414340834003400340034003402341B
:1011F40001345134093406340034003400343234B8
:101204004934793441343E340034003400347E347B
:101214000934093409347E340034003400347F3412
:1012240049344934493436340034003400343E34CB
:1012340041344134413422340034003400347F34A6
:101244004134413422341C340034003400347F34BB
:1012540049344934493441340034003400347F344F
:1012640009340934093401340034003400343E3480
:1012740041344134513472340034003400347F3406
:101284000834083408347F340034003400344134E2
:101294007F344134003400340034003400342034CA
:1012A400403441343F3401340034003400347F345A
:1012B40008341434223441340034003400347F348C
:1012C40040344034403440340034003400347F34FB
:1012D40002340C3402347F340034003400347F345C
:1012E4000434083410347F340034003400343E3481
:1012F4004134413441343E340034003400347F34CA
:1013040009340934093406340034003400343E34DA
:101314004134513421345E340034003400347F3499
:101324000934193429344634003400340034263462
:1013340049344934493432340034003400340134FB
:1013440001347F34013401340034003400343F3438
:101354004034403440343F340034003400341F34CB
:101364002034403420341F340034003400343F34FB
:101374004034383440343F3400340034003463346F
:101384001434083414346334003400340034033423
:1013940004347834043403340034003400346134C5
:1013A40051344934453443340034003400347F34F8
:1013B4004134413400340034003400340034023405
:1013C40004340834103420340034003400344134FC
:1013D40041347F34003400340034003400340434A5
:1013E40002340134023404340034003400348034D0
:1013F4008034803480348034003400340034013448
:101404000234043400340034003400340034203412
:1014140054345434543478340034003400347F3435
:1014240048344434443438340034003400343834D8
:101434004434443428340034003400340034383420
:101444004434443448347F34003400340034383471
:1014540054345434543418340034003400340834CC
:101464007E34093402340034003400340034183437
:10147400A434A434A4347C340034003400347F34E1
:101484000834043404347834003400340034003430
:101494007D340034003400340034003400348034AB
:1014A40084347D34003400340034003400347F3418
:1014B40010342834443400340034003400344134CB
:1014C4007F344034003400340034003400347C343D
:1014D40004341834043478340034003400347C3454
:1014E400083404347C340034003400340034383498
:1014F4004434443438340034003400340034FC348C
:1015040024342434183400340034003400341834BF
:1015140024342434FC3400340034003400340034E3
:101524007C34083404340034003400340034483447
:101534005434543424340034003400340034043437
:101544007F344434003400340034003400343C34F8
:10155400403440347C3400340034003400341C34CF
:101564002034403420341C340034003400343C34FF
:101574004034303440343C34003400340034443497
:1015840028341034283444340034003400341C34F7
:10159400A034A0347C3400340034003400344434A7
:1015A400643454344C344434003400340034083447
:1015B4003634413400340034003400340034003410
:1015C4007F340034003400340034003400344134B7
:1015D4003634083400340034003400340034023427
:1015E4000134013402340134003400340034023450
:1015F400053405340234003400340034FF348134BB
:10160400BD34BD34BD348134FF3418340034003467
:020000040001F9
:04000E00A419FF1E14
:00000001FF
