:08000000803102288731FD2F39
:100F5800210019109910991119169916191799172E
:100F680008008731C0278731C03025009100C03084
:100F78009800B82F803102288731AC2787312100AB
:100F88008F100D108D1023008D0125001E08FC39CF
:100F980002389E001E08F33908389E0028001E08F3
:100FA800FC3901389E001E15FF309D00CF3025000A
:100FB80093051308F0390C389300CF309A051A08B6
:100FC800F0390C389A0055303C008F00AA308F0059
:100FD8000F103D001808E0390C3898001908E0395E
:100FE8000D38990055303C008F00AA308F000F143F
:080FF800080020008731B52F2D
:020000040001F9
:04000E00A419FF1E14
:00000001FF
