:020000040000FA
:08000000803102288731D62F60
:10000A0020006C08E6006B08E5006A08E40069084D
:10001A00E300D330ED006D08E700973120278031E7
:10002A002000EE006E082100D5005508FC000130C2
:10003A00FD0090318B2080312830FC009830FD0083
:10004A0090318B2008002000C0002C30B400340806
:10005A00BB002B08B5002A08B400AA0A0319AB0A88
:10006A0034088400350885000008B6003608C50043
:10007A0045080319EA292530450603195128450878
:10008A00B40040088600013087003408810001303E
:10009A00B4003408C0072E28C101C201BA012A08D7
:1000AA0084002B088500000890315E208031031CF3
:1000BA008F282000C101C2010A30F0000030F1008F
:1000CA0020004208F3004108F2009031B820803144
:1000DA0071082000C2007008C1002A0884002B0899
:1000EA0085000008D03EB400FF3003180030B50088
:1000FA003408C1073508C23D0130AA070030AB3DBC
:10010A002A0884002B088500000890315E2080317F
:10011A000318612820002A0884002B088500120091
:10012A002E3A031DCD280130AA070030AB3DC3018A
:10013A00C4012A0884002B088500000890315E203B
:10014A008031031CD72820002A0884002B08850048
:10015A000008B400B5014408F1004308F0000A3071
:10016A00F2000030F3009031B820803120003408CA
:10017A007007B6003508713DB7003608D03EC30097
:10018A00FF30373DC4000130AA070030AB3D9E283E
:10019A00C301C401D7283A16D728C030B40034089E
:1001AA00BA04EF2820002B08B5002A08B400AA0ACE
:1001BA000319AB0A34088400350885000008C50015
:1001CA00003A0319EA296C3A0319D028193A031993
:1001DA00D2282E283A1EFE283B0886008701403F77
:1001EA00BC00413FBD00423FBE00433FBF00043058
:1001FA000C293B0886008701403FB400413FB50007
:10020A003408BC003508BD00BE01BF010230B4008D
:10021A003408BB0743084404031D1D293F083E0454
:10022A003D043C04031D1D290130C3070030C43DB1
:10023A00C501C50A4508B400B501B435B50DB435D4
:10024A00B50D0030340784009830353D8500003FF5
:10025A00B600013FB700023FB800033FB9003908B2
:10026A003F02031D422938083E02031D422937086E
:10027A003D02031D422936083C02031C4C29013069
:10028A00B4003408C5070A304506031D1F2944086F
:10029A00803A803C031D53294308450203185B2911
:1002AA0020004308B4003408C5006F292000440820
:1002BA00803AB40080303402031D652945084302A0
:1002CA0003186F2920004508B400B5013408C3009B
:1002DA003508C40020004208803A803C031D772973
:1002EA00410845020318822920004508B400B501D7
:1002FA003408C1023508C23B85292000C101C20168
:10030A00410842040319DF292030B400400886005E
:10031A0001308700340881000130B4003408C00776
:10032A00FF30C107FF30C23D85290030A3000030ED
:10033A00A2000030A1000A30A0004408850043084A
:10034A0084008435850D8435850D00308407983006
:10035A00853D003FF000013FF100023FF200033FFC
:10036A00F3003F08F7003E08F6003D08F5003C0898
:10037A00F40092313B22803173082000A7007208F2
:10038A00A6007108A5007008A4009131F8218031F7
:10039A0020002008303EB4003408C5004508B400E7
:1003AA004008860001308700340881000130B4001B
:1003BA003408C007FF30C307FF30C43D430A031D9A
:1003CA009A29440A03192E289A29400886000130DE
:1003DA0087008101080020005F088039E00060087A
:1003EA002100CE0020005F35E00060082100D50022
:1003FA002000DE1F022A2100551421005508031986
:10040A00162A550A031D122A00302000DF00003088
:10041A00DE000030DD000030DC002000DE17DF01E6
:10042A001F2A00302000DF000030DE000030DD002F
:10043A000030DC005B088039E00060082100CE064D
:10044A0020005B35E00060082100D6002000DA1F9A
:10045A00302A21005614210056080319442A560A44
:10046A00031D402A00302000DB000030DA00003093
:10047A00D9000030D8002000DA17DB014D2A0030FD
:10048A002000DB000030DA000030D9000030D8004C
:10049A005B085A0459045804031D6E2A0030DF0011
:1004AA000030DE000030DD000030DC008030DE0489
:1004BA007F30DF0421004E082000E0006008DF04DE
:1004CA005F08DB005E08DA005D08D9005C08D80026
:1004DA00080021005508031D7C2A00302000DB009B
:1004EA000030DA000030D9000030D8000800550882
:1004FA002000E000E1016108E30021005608200025
:10050A006002E200031CE30362087F3E2100CF0081
:10051A0000302000633D2100D00020005F08210048
:10052A00CD0020005E082100CC0020005D082100DB
:10053A00CB0020005C082100CA0000302000DF0048
:10054A000030DE000030DD000030DC000030210029
:10055A00D4000030D3000030D2000030D100D601E0
:10056A001A3056020318082B56080319D82A0130E4
:10057A00CA35CB0DCC0DCD0D890BBD2A013020001B
:10058A00DC35DD0DDE0DDF0D890BC42A2100D41FF9
:10059A00D02A20005C1401302100D135D20DD30DB0
:1005AA00D40D890BD12A20005B0821004D02031DBE
:1005BA00EE2A20005A0821004C02031DEE2A2000D0
:1005CA00590821004B02031DEE2A20005808210079
:1005DA004A02031C012B5417200058082100CA02A2
:1005EA00200059082100CB3B20005A082100CC3BAF
:1005FA0020005B082100CD3B01302000E0006008AC
:10060A002100D607B52A4D084C044B044A04031DA1
:10061A0051142000DE1B2A2B0130DC35DD0DDE0DE6
:10062A00DF0D890B122B2100D41F1D2B20005C1417
:10063A0001302100D135D20DD30DD40D890B1E2BDB
:10064A00FF30CF07FF30D03D0E2B2100D601D41F3B
:10065A004C2BFF3051052000E000FF3021005205ED
:10066A002000E100FF30210053052000E2007F3026
:10067A00210054052000E300630862046104600459
:10068A0003195C18492B4C2B2100D601D60A2100EC
:10069A0056080319782B01302000DC070030DD3DB5
:1006AA000030DE3D0030DF3D5F1C782B5C08E00047
:1006BA005D08E1005E08E2005F08E3000130E40043
:1006CA00E337E20CE10CE00CE40B652B6308DF0076
:1006DA006208DE006108DD006008DC0001302100EC
:1006EA00CF070030D03D21005008803A2000E000BA
:1006FA0080306002031D842BFF3021004F02031C4F
:10070A00942BFF302100CF000030D00000302000B1
:10071A00DF000030DE000030DD000030DC002100A8
:10072A005008803A2000E00080306002031DA02BB0
:10073A00013021004F020318B02B2100CF01D00154
:10074A0000302000DF000030DE000030DD00003025
:10075A00DC002100CE0121004F082000E0006008E3
:10076A002100D500551CBC2B2000DE17C12B7F3081
:10077A002000E0006008DE05210055362000E00078
:10078A006008DF005F2A200047088039CC004C0847
:10079A00D4004735CC004C08D600C61B5614560860
:1007AA000319E52B560A031DE22B0030C70000305F
:1007BA00C6000030C5000030C400C617C701ED2BC3
:1007CA000030C7000030C6000030C5000030C40049
:1007DA004B088039CC004C08D50055085406031D37
:1007EA0054174B35CC004C08D500CA1B5514550874
:1007FA0003190D2C550A031D0A2C0030CB000030BA
:10080A00CA000030C9000030C800CA17CB01152C35
:10081A000030CB000030CA000030C9000030C800E8
:10082A005608550203185B2C541F1F2C8030CC002D
:10083A004C08D4065608CC004C08D7005508CC0002
:10084A004C08D6005708CC004C08D5004408CC0008
:10085A004C08D7004808CC004C08C4005708CC0004
:10086A004C08C8004508CC004C08D7004908CC0001
:10087A004C08C5005708CC004C08C9004608CC00F3
:10088A004C08D7004A08CC004C08C6005708CC00D0
:10089A004C08CA004708CC004C08D7004B08CC00CB
:1008AA004C08C7005708CC004C08CB00D7015508A4
:1008BA00CC00CD014D08CF0056084C02CE00031CD7
:1008CA00CF034F08803AD00080305002031D6F2CAE
:1008DA001A304E02031CA32C200047084604450484
:1008EA00440403197A2C01307B2C0030CC004C08CC
:1008FA00D7000030C7000030C6000030C500003005
:10090A00C4005508CC004C08D600A82C571C932CC0
:10091A0057360138CC004C08D700952C0310D70C59
:10092A004418D7170130CC00C737C60CC50CC40C05
:10093A00CC0B992C0130CC004C08D6072000550866
:10094A005602031C8B2C541BD92C5608031DB62C9B
:10095A000030C7000030C6000030C5000030C400B7
:10096A0008004808C4074908C53D4A08C63D4B085F
:10097A00C73D471C532D571CC82C57360138CC008D
:10098A004C08D700CA2C0310D70C4418D7170130CB
:10099A00CC00C737C60CC50CC40CCC0BCE2C01300E
:1009AA00CC004C08D607532D4708803ACC004B0898
:1009BA00803A4C02031DEB2C4A084602031DEB2C1D
:1009CA0049084502031DEB2C480844020318232D4D
:1009DA00FF30CC00FF30CD00FF30CE00FF30CF001B
:1009EA0044084802D0004508493BD10046084A3B22
:1009FA00D20047084B3BD3005008CC075108CD3DE5
:100A0A005208CE3D5308CF3D4F08C7004E08C600D6
:100A1A004D08C5004C08C4008030CC004C08D406F0
:100A2A00D709D70A5708031D2B2D0130C4070030F8
:100A3A00C53D0030C63D0030C73D2B2D4808C402D5
:100A4A004908C53B4A08C63B4B08C73B470846040A
:100A5A0045044404031D512D5708031D512D003030
:100A6A00C7000030C6000030C5000030C4000800CE
:100A7A000130C435C50DC60DC70D890B3E2DD71BD8
:100A8A004414571C4A2D03144B2D0310D70D560836
:100A9A000319512D0130D602C61F3D2DD501D71F8E
:100AAA005E2D57087F39031944185C2D5E2DD50138
:100ABA00D50A550803198A2D0130C4070030C53DEF
:100ACA000030C63D0030C73D471C8A2D4408CC0083
:100ADA004508CD004608CE004708CF000130D000B7
:100AEA00CF37CE0CCD0CCC0CD00B752D4F08C700D0
:100AFA004E08C6004D08C5004C08C400560A031922
:100B0A008A2D0130CC004C08D607560A031D560818
:100B1A00031D9A2D0030C7000030C6000030C50002
:100B2A000030C40056080319D401561C9E2DC6175E
:100B3A00A22D7F30CC004C08C6055636CC004C0896
:100B4A00C700D41F0800C717080020002D088039E5
:100B5A00B2003208B7002D35B2003208BD00AC1B16
:100B6A003D143D080319C62D3D0A031DC42D00304E
:100B7A00AD000030AC000030AB000030AA00AC176A
:100B8A00CE2D0030AD000030AC000030AB0000309C
:100B9A00AA0031088039B2003208B7063135B200EE
:100BAA003208BC00B01B3C143C080319E92D3C0A6E
:100BBA00031DE72D0030B1000030B0000030AF0057
:100BCA000030AE00B017F12D0030B1000030B00097
:100BDA000030AF000030AE003C08031D3D08031D85
:100BEA00FF2D0030AD000030AC000030AB0000300B
:100BFA00AA0008002A08B2003208F0003008903132
:100C0A00F120853171082000C3007008C200420833
:100C1A00B200B301B401B5013508BB003408BA000B
:100C2A003308B9003208B8004308B200B301B4016E
:100C3A00B5013508C1003408C0003308BF003208C6
:100C4A00BE002B08B2003208F0002F089031F120C4
:100C5A00853171082000C3007008C2004208B20042
:100C6A00B301B401B5013208B8073308B93D3408F5
:100C7A00BA3D3508BB3D4308B200B301B401B50122
:100C8A003208BE073308BF3D3408C03D3508C13DB0
:100C9A002C08B2003208F0002E089031F12085317C
:100CAA0071082000C3007008C2004208B200B301F4
:100CBA00B401B5013208B8073308B93D3408BA3D62
:100CCA003508BB3D4308B200B301B401B50132088F
:100CDA00BE073308BF3D3408C03D3508C13D083062
:100CEA00B835B90DBA0DBB0D890B752E2B08B2009C
:100CFA003208F0002E089031F12085317108200069
:100D0A00C3007008C2004208B8074308B93D003062
:100D1A00BA3DBB3D2A08B2003208F0002F089031D4
:100D2A00F120853171082000C3007008C200420812
:100D3A00B8074308B93D0030BA3DBB3D0830B83565
:100D4A00B90DBA0DBB0D890BA42E2A08B2003208C0
:100D5A00F0002E089031F120853171082000C3007F
:100D6A007008C2004208B8074308B93D0030BA3DCE
:100D7A00BB3D2B08B2003208F00030089031F12058
:100D8A00853171082000C3007008C2004208BE07FE
:100D9A004308BF3D0030C03DC13D2C08B2003208B7
:100DAA00F0002F089031F120853171082000C3002E
:100DBA007008C2004208BE074308BF3D0030C03D6C
:100DCA00C13D2C08B2003208F00030089031F12001
:100DDA00853171082000C3007008C2004208B200C1
:100DEA004308B300B401B5010830B235B30DB40DF0
:100DFA00B50D890BFA2E3208BE073308BF3D3408F9
:100E0A00C03D3508C13D3808B2003908B3003A0878
:100E1A00B4003B08B5001830B536B40CB30CB20CAC
:100E2A00890B112F3208BE073308BF3D3408C03D75
:100E3A003508C13D0830B835B90DBA0DBB0D890B5F
:100E4A00202F3D083C07B200B301B30D3208823EA1
:100E5A00C200FF30333DC300C01B482F0130BE35EE
:100E6A00BF0DC00DC10D890B342FBB1B3E140130C1
:100E7A00B835B90DBA0DBB0D890B3D2FFF30C2072E
:100E8A00FF30C33D312FBC01BB1F612FFF30380536
:100E9A00B200FF303905B300FF303A05B4007F30A5
:100EAA003B05B500350834043304320403193E18EF
:100EBA005F2F612FBC01BC0A3C0803198A2F01303D
:100ECA00BE070030BF3D0030C03D0030C13D411C6F
:100EDA008A2F3E08B2003F08B3004008B400410818
:100EEA00B5000130B600B537B40CB30CB20CB60B72
:100EFA00782F3508C1003408C0003308BF00320813
:100F0A00BE000130C2070030C33D4308803AB20038
:100F1A0080303202031D932FFF304202031C9F2FA1
:100F2A007F302000C1008030C0000030BF00003098
:100F3A00BE00C92F20004308803AB2008030320236
:100F4A00031DA92F013042020318B62F00302000DA
:100F5A00C1000030C0000030BF000030BE00B70141
:100F6A00C92F20004208B2003208BD00FF30BE057A
:100F7A00FF30BF057F30C0050030C1053D18C017DE
:100F8A003D36B2003208C1003708B2003208C10447
:100F9A004108AD004008AC003F08AB003E08AA007B
:100FAA0008001C30840090308500E930860000304B
:100FBA008700073090310F20873145308400903008
:100FCA0085004D308600013087000C3090310F20AB
:100FDA008731A0308400003085002A309031092002
:100FEA00873120308400013085002D30903109206E
:100FFA00200095316B2D0034003400340034003465
:10100A00003400340034003400345F3400340034D7
:10101A000034003400340034003407340034073418
:10102A00003400340034003414347F3414347F34F0
:10103A00143400340034003424342A347F342A34FB
:10104A001234003400340034233413340834643442
:10105A00623400340034003436344934553422348E
:10106A00503400340034003400340534033400347E
:10107A0000340034003400341C3422344134003447
:10108A000034003400340034413422341C34003437
:10109A00003400340034003408342A341C342A342E
:1010AA000834003400340034083408343E34083438
:1010BA000834003400340034A0346034003400347E
:1010CA000034003400340034083408340834083456
:1010DA00083400340034003460346034003400349E
:1010EA00003400340034003420341034083404341A
:1010FA0002340034003400343E3451344934453427
:10110A003E34003400340034003442347F344034F6
:10111A0000340034003400346234513449344934E0
:10112A0046340034003400342234413449344934DA
:10113A0036340034003400341834143412347F3412
:10114A0010340034003400342734453445344534EF
:10115A0039340034003400343C344A344934493494
:10116A003034003400340034013471340934053425
:10117A0003340034003400343634493449344934B1
:10118A0036340034003400340634493449342934BE
:10119A001E3400340034003400343634363400341B
:1011AA0000340034003400340034AC346C3400347D
:1011BA000034003400340034083414342234413406
:1011CA000034003400340034143414341434143425
:1011DA0014340034003400344134223414340834D2
:1011EA0000340034003400340234013451340934F8
:1011FA00063400340034003432344934793441340A
:10120A003E340034003400347E340934093409345D
:10121A007E340034003400347F344934493449344C
:10122A0036340034003400343E34413441344134DD
:10123A0022340034003400347F34413441342234BF
:10124A001C340034003400347F344934493449347E
:10125A0041340034003400347F3409340934093409
:10126A0001340034003400343E34413441345134C2
:10127A0072340034003400347F34083408340834BB
:10128A007F3400340034003441347F344134003434
:10129A0000340034003400342034403441343F34C4
:1012AA0001340034003400347F34083414342234D6
:1012BA0041340034003400347F3440344034403404
:1012CA0040340034003400347F3402340C340234A5
:1012DA007F340034003400347F340434083410344A
:1012EA007F340034003400343E34413441344134D4
:1012FA003E340034003400347F340934093409346C
:10130A0006340034003400343E344134513421343C
:10131A005E340034003400347F34093419342934FB
:10132A0046340034003400342634493449344934CC
:10133A003234003400340034013401347F3401344F
:10134A0001340034003400343F34403440344034F3
:10135A003F340034003400341F3420344034203405
:10136A001F340034003400343F34403438344034BD
:10137A003F340034003400346334143408341434F1
:10138A0063340034003400340334043478340434CD
:10139A000334003400340034613451344934453460
:1013AA0043340034003400347F344134413400344F
:1013BA000034003400340034023404340834103465
:1013CA002034003400340034413441347F34003452
:1013DA00003400340034003404340234013402345A
:1013EA00043400340034003480348034803480344F
:1013FA0080340034003400340134023404340034BC
:10140A000034003400340034203454345434543416
:10141A0078340034003400347F344834443444345B
:10142A0038340034003400343834443444342834F2
:10143A0000340034003400343834443444344834FA
:10144A007F3400340034003438345434543454343F
:10145A00183400340034003408347E340934023439
:10146A0000340034003400341834A434A434A434CE
:10147A007C340034003400347F34083404340434B7
:10148A00783400340034003400347D3400340034BD
:10149A000034003400340034803484347D34003421
:1014AA0000340034003400347F3410342834443497
:1014BA00003400340034003441347F344034003482
:1014CA0000340034003400347C34043418340434D6
:1014DA0078340034003400347C34083404347C34E6
:1014EA00003400340034003438344434443438345A
:1014FA000034003400340034FC34243424341834E6
:10150A000034003400340034183424342434FC34D5
:10151A00003400340034003400347C340834043499
:10152A0000340034003400344834543454342434FD
:10153A00003400340034003404347F34443400343A
:10154A0000340034003400343C34403440347C34B9
:10155A0000340034003400341C3420344034203445
:10156A001C340034003400343C34403430344034C9
:10157A003C340034003400344434283410342834E1
:10158A0044340034003400341C34A034A0347C3495
:10159A0000340034003400344434643454344C3459
:1015AA0044340034003400340834363441340034CE
:1015BA00003400340034003400347F340034003402
:1015CA0000340034003400344134363408340034F2
:1015DA00003400340034003402340134013402345B
:1015EA000134003400340034023405340534023442
:1015FA0000340034003425346C3475342E342534E8
:0C160A0036342E3436346C347534003421
:10161800633028009D009C01200012110C30280026
:101628009E00080000302100DE000030DD000030A0
:10163800DC000030DB001D08833904389D00D90127
:10164800DA010D30890B262B000021009D149D180E
:101658002B2B1C08D8001B08D7005E082000C700E9
:1016680021005D082000C60021005C082000C5009C
:1016780021005B082000C4003B30AD00A030AC0066
:101688009030AB002E30AA0021005708F900580806
:10169800FA00FB01FC01003096318A268B317C0868
:1016A8002000B1007B08B0007A08AF007908AE00CE
:1016B8008531AA258B3120002D08CB002C08CA00C3
:1016C8002B08C9002A08C8008331C8238B312000A1
:1016D80047082100DE00200046082100DD00200028
:1016E80045082100DC00200044082100DB0006300A
:1016F800FD003030890B7E2BFD0B7E2B0032013034
:101708002100D9070030DA3D5A08803AFD008030C0
:101718007D02031D912BC8305902031C252B433031
:101728002000DB004830DA000030D9000030D80053
:1017380021005E082000DF0021005D082000DE0097
:1017480021005C082000DD0021005B082000DC008F
:101758008131F0218B3120005B082100DE00200060
:101768005A082100DD00200059082100DC00200073
:1017780058082100DB003D302000DB00CC30DA00C7
:10178800CC30D900CD30D800C030C7002030C600DA
:101798000030C5000030C40021005E082000CB00E6
:1017A80021005D082000CA0021005C082000C90053
:1017B80021005B082000C8008331C8238B3120003A
:1017C8004708DF004608DE004508DD004408DC0065
:1017D8008131F0218B3120005B082100BB00200003
:1017E8005A082100BA00200059082100B900200039
:1017F80058082100B8003B082000E80021003A08FA
:101808002000E700210039082000E6002100380800
:101818002000E50094312024200068082100BB0046
:10182800200067082100BA00200066082100B900DE
:10183800200065082100B800080000302100E400FD
:101848000030E3000030E2000030E1001D08833979
:1018580008389D00E501E6010D30890B312C0000A8
:1018680021009D149D18362C1C08DC001B08DB0089
:1018780064082000C700210063082000C60021007A
:1018880062082000C500210061082000C400210072
:101898005B08F9005C08FA00FB01FC010030963196
:1018A8008A268C317C082000CB007B08CA007A0885
:1018B800C9007908C8008331C8238C312000470843
:1018C8002100E400200046082100E300200045082C
:1018D8002100E200200044082100E1000B30FD0057
:1018E8006230890B752CFD0B752C003201302100FC
:1018F800E5070030E63D6608803AFD0080307D024D
:10190800031D882CC9306502031C302C433020008D
:10191800DB004830DA000030D9000030D800210060
:1019280064082000DF00210063082000DE00210099
:1019380062082000DD00210061082000DC00813100
:10194800F0218C3120005B082100E00020005A08BB
:101958002100DF00200059082100DE00200058087F
:101968002100DD0044302000DB008030DA00003048
:10197800D9000030D8004030AD00A030AC000030B5
:10198800AB000030AA00210060082000B10021004F
:101998005F082000B00021005E082000AF00210091
:1019A8005D082000AE008531AA258C3120002D0865
:1019B800DF002C08DE002B08DD002A08DC0081315E
:1019C800F0218C3120005B082100DA0020005A0841
:1019D8002100D900200059082100D800200058080B
:1019E8002100D70040302000AD00BE30AC00B83038
:1019F800AB005230AA0021005A082000B100210093
:101A080059082000B000210058082000AF0021002C
:101A180057082000AE008531AA258C3120002D08FA
:101A28002100C30020002C082100C20020002B0840
:101A38002100C10020002A082100C0004308F3004B
:101A48004208F2004108F1004008F0000030F700B9
:101A58000030F6000030F5000030F4009431F02436
:101A68008C310318402D00302100C3000030C20023
:101A78000030C1000030C000210043082000E80009
:101A8800210042082000E700210041082000E6006C
:101A9800210040082000E500943120242000680837
:101AA8002100C300200067082100C200200066084A
:101AB8002100C100200065082100C0000800003096
:101AC8002100E4000030E3000030E2000030E100D3
:101AD80083309D05E501E6010D30890B712D00006D
:101AE80021009D149D18762D1C08DC001B08DB00C6
:101AF80064082000C700210063082000C6002100F8
:101B080062082000C500210061082000C4002100EF
:101B18005B08F9005C08FA00FB01FC010030963113
:101B28008A268D317C082000CB007B08CA007A0801
:101B3800C9007908C8008331C8238D3120004708BF
:101B48002100E400200046082100E30020004508A9
:101B58002100E200200044082100E1000B30FD00D4
:101B68006230890BB52DFD0BB52D003201302100F7
:101B7800E5070030E63D6608803AFD0080307D02CA
:101B8800031DC82DC9306502031C702D4330200089
:101B9800DB004830DA000030D9000030D8002100DE
:101BA80064082000DF00210063082000DE00210017
:101BB80062082000DD00210061082000DC0081317E
:101BC800F0218D3120005B082100E00020005A0838
:101BD8002100DF00200059082100DE0020005808FD
:101BE8002100DD0044302000DB008030DA000030C6
:101BF800D9000030D8004030AD00A030AC00003033
:101C0800AB000030AA00210060082000B1002100CC
:101C18005F082000B00021005E082000AF0021000E
:101C28005D082000AE008531AA258D3120002D08E1
:101C3800DF002C08DE002B08DD002A08DC008131DB
:101C4800F0218D3120005B082100DA0020005A08BD
:101C58002100D900200059082100D8002000580888
:101C68002100D7005A08B7005908B6005808B5002F
:101C78005708B40040302000AD00C030AC00003040
:101C8800AB000030AA00210037082000B100210075
:101C980036082000B000210035082000AF002100E0
:101CA80034082000AE008531AA258D3120002D088A
:101CB8002100C70020002C082100C60020002B08A6
:101CC8002100C50020002A082100C4004708F300AD
:101CD8004608F2004508F1004408F0000030F7001B
:101CE8000030F6000030F5000030F4009431F024A4
:101CF8008D310318882E00302100C7000030C6003F
:101D08000030C5000030C400210047082000E8006A
:101D1800210046082000E700210045082000E600D1
:101D2800210044082000E5009431202420006808A0
:101D38002100C700200067082100C60020006608AF
:101D48002100C500200065082100C40008004130BA
:101D58002100B3005C30B200CC30B100CD30B0000F
:101D68004708AF004608AE004508AD004408AC007F
:101D78002F082000DB0021002E082000DA002100B7
:101D88002D082000D90021002C082000D8002100AF
:101D980033082000DF00210032082000DE00210087
:101DA80031082000DD00210030082000DC009131DE
:101DB80010218E3120005B082100AB0020005A085A
:101DC8002100AA00200059082100A9002000580875
:101DD8002100A80023082000C700210022082000B5
:101DE800C600210021082000C5002100200820008D
:101DF800C4004030AD00A030AC000030AB00003073
:101E0800AA0021002B082000B10021002A08200088
:101E1800B000210029082000AF0021002808200078
:101E2800AE008531AA258E3120002D08CB002C0864
:101E3800CA002B08C9002A08C8008331C8238E317C
:101E4800200047082100A300200046082100A20026
:101E5800200045082100A100200044082100A0001E
:101E680040302000AD000030AC000030AB00003046
:101E7800AA00210023082000B10021002208200028
:101E8800B000210021082000AF0021002008200018
:101E9800AE008531AA258E3120002D08C7002C08F8
:101EA800C6002B08C5002A08C4004130AD00203008
:101EB800AC000030AB000030AA0021002B08200045
:101EC800B10021002A082000B000210029082000C4
:101ED800AF00210028082000AE008531AA258E31E8
:101EE80020002D08CB002C08CA002B08C9002A089E
:101EF800C8008331C8238E31200047082100A7007D
:101F0800200046082100A600200045082100A50061
:101F1800200044082100A4002B082200AB00210067
:101F28002A082200AA00210029082200A90021006D
:101F380028082200A80021002708EC002608EB004A
:101F48002508EA002408E9004330F300C630F2000F
:101F58000030F1000030F0006C08F7006B08F60064
:101F68006A08F5006908F4009431F0248E310318EA
:101F7800C62F43302100EC00C630EB000030EA00E9
:101F88000030E90021006C08F3006B08F2006A08D1
:101F9800F1006908F0004230F7002030F600003008
:101FA800F5000030F4009431F0248E310318E52F49
:101FB80042302100EC002030EB000030EA00003015
:101FC800E90021006C082000DB0021006B082000DC
:101FD800DA0021006A082000D900210069082000E1
:101FE800D8009331BA238E3120005908E4005808EC
:081FF800E30090319F20080076
:10200A001630210097000800640080010131890B15
:10201A000A280034FE0012001E00FE0B10280034AD
:10202A0038302100990098012200960108000034F6
:10203A00003416344334C834C034C43420009111F7
:10204A002400161420009119080027282000911155
:10205A00240016152000911908002F28200091113C
:10206A00700824009100200091190800382873088C
:10207A00720471047004031908008030F306080022
:10208A00003400340034403400340034A034403486
:10209A00003400342034413480302C00990031302F
:1020AA009800C030970025001E08CF3920389E00BE
:1020BA000800F100F0013A30710203186A28303042
:1020CA007102031C6A28F001F00A700C08009131B1
:1020DA008021903190311520903190310520903136
:1020EA009031512090318B310C23080024001508BF
:1020FA00F039083895009516273092003430F000F0
:10210A00F230890B8628F00B862808007C088400A8
:10211A007D0885001200031908007C0884007D08E8
:10212A00850000089431872490310130FC07003083
:10213A00FD3D8B2820006408E6006308E500E636CA
:10214A00E50CE636E50C65082C00980020006308CB
:10215A000339E5000530E535FF3E031DB028653536
:10216A002C0097000800F401F501701CC0287208C1
:10217A00F4077308F53D0130F235F30D890BC128D8
:10218A000130F136F00C890BC62870087104031D62
:10219A00BA287508F1007408F0000800F4009031BC
:1021AA00232090317830F0000030F1009031332054
:1021BA0090310030F000F1009031332090317408F2
:1021CA00F200F3017208F0007308F1009031332035
:1021DA00903190312B200800F800F401F5017008C5
:1021EA00F200F3017208F6007308F700781C01295F
:1021FA007608F4077708F53D0130F635F70D890BB7
:10220A0002290310F80C7808031DFB287508F10051
:10221A007408F000080080302000DB065F08C70061
:10222A005E08C6005D08C5005C08C4005B08CB00F8
:10223A005A08CA005908C9005808C8008331C82377
:10224A0020004708DB004608DA004508D9004408A0
:10225A00D8000800F9007908B03E9031D3209131B6
:10226A007508F6000230F635FF3E031D382976352B
:10227A000F399031D32091317508F600F701F63500
:10228A00F70DF635F70DF635F70D0430F800770D32
:10229A00F70CF60CF80B4C2976080F39103E9031E2
:1022AA00D32008002000B201B301B401B5013408FB
:1022BA00FC007C08F500320891312F219131203041
:1022CA0094318724913101302000B4070030B53DA4
:1022DA0000303502103003193402031C5C29013026
:1022EA00B2070030B33D003033020830031932021E
:1022FA00031808005A29220090018F018C018D01D0
:10230A008E010F3021009000FF308C00FE308D00CE
:10231A00FF308E00FF308F00FF3023008F00FC302B
:10232A008E003F308D00073090003F308C00240033
:10233A008F0190018D018C018E01210095172500D6
:10234A0090018C018D018E018F01FF3026008C00D7
:10235A00FF308D00FF308E00FF308F000730900075
:10236A000E303D00980008000C3021004806490450
:10237A00031DD92941302200BB006330BA00333033
:10238A00B9003330B8004130B7005C30B600CC3009
:10239A00B500CD30B4004130B3003830B20000305F
:1023AA00B1000030B0000800063048064904031D99
:1023BA00080040302200BB00E330BA003330B900D5
:1023CA003330B8004030B700DC30B600CC30B5004E
:1023DA00CD30B4004030B300B830B2000030B100A4
:1023EA000030B00008002000230822042104200441
:1023FA000319322AA901A90AA31B0F2A0130A03501
:10240A00A10DA20DA30D890B042A0130A8002808EA
:10241A00A907012A23082702031D1D2A22082602CA
:10242A00031D1D2A21082502031D1D2A2008240236
:10243A00031C272A2008A4022108A53B2208A63B40
:10244A002308A73B0130A336A20CA10CA00C890BD0
:10245A00282A0130A902031D0F2A2708A3002608EB
:10246A00A2002508A1002408A00008000030FC00F2
:10247A000030FB000030FA000030F90073087204E3
:10248A00710470040319842AFD01FD0AF31B592AF9
:10249A000130F035F10DF20DF30D890B4E2A0130A2
:1024AA00F8007808FD074B2A0130F935FA0DFB0DC3
:1024BA00FC0D890B5A2A73087702031D6E2A7208CB
:1024CA007602031D6E2A71087502031D6E2A7008B2
:1024DA007402031C792A7008F4027108F53B720829
:1024EA00F63B7308F73B79140130F336F20CF10C22
:1024FA00F00C890B7A2A0130FD02031D592A7C0847
:10250A00F3007B08F2007A08F1007908F00008006D
:10251A00AE309031D3209231D5309031D3209231E0
:10252A0080309031D3209231A8309031D32092312B
:10253A001F309031D3209231D3309031D320923151
:10254A0000309031D320923140309031D3209231F3
:10255A008D309031D3209231AF309031D3209231E7
:10256A0020309031D320923100309031D3209231F3
:10257A00A1309031D3209231C8309031D32092319A
:10258A00DA309031D320923102309031D320923117
:10259A0081309031D32092318F309031D3209231D3
:1025AA00D9309031D3209231F1309031D320923109
:1025BA00DB309031D320923140309031D3209231A8
:1025CA00A4309031D3209231A6309031D320923169
:1025DA00AF309031D32008004130F3003830F20098
:1025EA000030F1000030F00021004708F7004608EB
:1025FA00F6004508F5004408F4009431F0249231BD
:10260A000318232B21004708F3004608F200450867
:10261A00F1004408F0004130F7007830F60000304D
:10262A00F5000030F4009431F02492310318232B82
:10263A000C302100C8000030C90008004030F30007
:10264A00B830F2000030F1000030F00021004708F5
:10265A00F7004608F6004508F5004408F4009431EE
:10266A00F02492310318080021004708F3004608B5
:10267A00F2004508F1004408F0004030F700F83055
:10268A00F6000030F5000030F4009431F024923165
:10269A000318080006302100C8000030C9000800ED
:1026AA00F8007108FA007008F9007808F400740854
:1026BA00FB007B08F4000030F50075087A02031D60
:1026CA00682B7408790203189E2B72087907F400A4
:1026DA0073087A3DF5007B08F6000030F7007508AC
:1026EA007702031D7A2B7408760203189E2B720850
:1026FA00F9077308FA3D7208F4007408FB07013001
:10270A00F9020030FA3B790884007A08850000084B
:10271A00F4000130FB027B088600870174088100FF
:10272A000130F2020030F33B720873040319080007
:10273A00842B7208730403190800790884007A0844
:10274A0085000008F4007B08860087017408810070
:10275A000130F9070030FA3D0130F4007408FB0734
:10276A000130F2020030F33B9E2B031020005A0D79
:10277A005B0DDC005C08E2006208031DCD2B003013
:10278A00DB000030DA000030D9000030D800080041
:10279A005808DC005908DD005A08DE005B08DF0033
:1027AA001F30DF36DE0CDD0CDC0C890BD62B5C0807
:1027BA00E0006008E100DA17FF30D805FF30D905DC
:1027CA00FF30DA050030DB059630E202E21F002C0A
:1027DA006208803A973E031CC42B0130DB36DA0CC0
:1027EA00D90CD80C890BF32B0130DC005C08E2070A
:1027FA000319112CF22B203062020318C42B620831
:10280A000319112C0130D835D90DDA0DDB0D890BDE
:10281A00082C0130E202042C610803190800D809C7
:10282A00D909DA09DB09D80A0319D90A0319DA0A14
:10283A000319DB0A080020006808B1006708B00025
:10284A006608AF006508AE004230AD00C830AC0083
:10285A000030AB000030AA008531AA25943120004F
:10286A002D08CB002C08CA002B08C9002A08C8006A
:10287A003F30C7000030C6000030C5000030C40039
:10288A008331C823943120004708DB004608DA0068
:10289A004508D9004408D8009331BA23943120005E
:1028AA005808F9005908FA00890D893B8909FB0083
:1028BA00FC00013096318A2694317C082000EC0015
:1028CA007B08EB007A08EA007908E9004230DB006D
:1028DA00C830DA000030D9000030D8006C08DF00B8
:1028EA006B08DE006A08DD006908DC008131F0212E
:1028FA0020005B08E8005A08E7005908E600580873
:10290A00E50008002000B10020303102031C912CA0
:10291A0080303102031C952C2030A0002008B10021
:10292A003108A000A101A035A10DA035A10DA03547
:10293A00A10D0030A2008730A30020082207AD00B5
:10294A002108233DAE004030A0002008A4002E0834
:10295A00F1002D08F0000830F2000030F3002530B5
:10296A009331552394319031232094317830F000FB
:10297A000030F1009031332094314030F0000030C3
:10298A00F10090313320943101302000AF00003043
:10299A00B00020002F08243E860087010108A0000D
:1029AA00A1012008F0002108F10090313320943170
:1029BA0001302000AF070030B03D3008803AA00057
:1029CA0080302002031DEB2C09302F02031CCE2C71
:1029DA0090312B20080000307005F8000030710596
:1029EA00F90080307205FA007F307305FB007B081E
:1029FA007A0479047804031D0A2D0030F3000030AC
:102A0A00F2000030F1000030F00000307405F800E8
:102A1A0000307505F90080307605FA007F307705B9
:102A2A00FB007B087A0479047804031D242D003006
:102A3A00F7000030F6000030F5000030F400F31F14
:102A4A003E2D0030F8000030F9000030FA008030E6
:102A5A00FB007008F8027108F93B7208FA3B730828
:102A6A00FB3B7B08F3007A08F2007908F10078084A
:102A7A00F000F71F582D0030F8000030F900003040
:102A8A00FA008030FB007408F8027508F93B7608F2
:102A9A00FA3B7708FB3B7B08F7007A08F6007908CF
:102AAA00F5007808F4008030F3068030F7067708DE
:102ABA007302031D080076087202031D08007508D8
:102ACA007102031D080074087002080090316C201E
:102ADA00953123000E128E1221000E168E165530D5
:102AEA003C008F00AA308F000F103D002408E03907
:102AFA001138A4003C002108E0391438A10020084C
:102B0A00E0391538A0003D002508E0391038A50045
:102B1A0055303C008F00AA308F000F1490317B2073
:102B2A0095310B302100E8002630E7005D30890B33
:102B3A009C2DE70B9C2DE80B9C2D003292318D22A7
:102B4A0095310B302100E8002630E7005D30890B13
:102B5A00AC2DE70BAC2DE80BAC2D0032913157218F
:102B6A00953103302100E8000830E7007730890BFF
:102B7A00BC2DE70BBC2DE80BBC2D21000C148C14CA
:102B8A000C1523000C148C140C1521001E088F3907
:102B9A0020389E009E171E11FC309E0583309D052D
:102BAA009B019C011D145A302000E3000030E40010
:102BBA0090319F2095318C31212495318D316325B7
:102BCA0095318B31162395319231F122953191311C
:102BDA00B92195318E31AB2695319531F62595314E
:102BEA00E02DF501003091312F2195313330FC0071
:102BFA009830FD0090318B20953106302000EF008F
:102C0A006F08F500003091312F21953121004308DA
:102C1A002000EC00210042082000EB0021004108BE
:102C2A002000EA00210040082000E9008031052048
:102C3A009531F501013091312F2195313D30FC005C
:102C4A009830FD0090318B20953106302000EF003E
:102C5A006F08F500013091312F2195312100470885
:102C6A002000EC00210046082000EB002100450866
:102C7A002000EA00210044082000E90080310520F4
:102C8A009531F501023091312F2195313830FC0010
:102C9A009830FD0090318B20953106302000EF00EE
:102CAA006F08F500023091312F21953121003B0840
:102CBA002000EC0021003A082000EB00210039082E
:102CCA002000EA00210038082000E90080310520B0
:102CDA009531F501033091312F2195312E30FC00C9
:102CEA009830FD0090318B20953106302000EF009E
:102CFA006F08F500033091312F2195314230FC00E5
:102D0A009830FD0090318B2008002000A400240890
:102D1A00031DFC1FA02E7909A6007A09A7007B09CA
:102D2A00A8007C09A900A60A0319A70A0319A80A78
:102D3A000319A90AA82E7C08A9007B08A8007A080A
:102D4A00A7007908A6007C087B047A047904031D8D
:102D5A00B72E0030FC000030FB000030FA000030D3
:102D6A00F90008009630A0002008A500FE302905C9
:102D7A000319DE2E0130A0002008A5070130A9366C
:102D8A00A80CA70CA60C890BC42EBB2E0130A000E0
:102D9A002008A5070130A6070030A73D0030A83D4E
:102DAA000030A93D0130A936A80CA70CA60C890B46
:102DBA00D82EFF3029050319F02ECB2E023025021A
:102DCA00031CF22E0130A5020130A635A70DA80D6D
:102DDA00A90D890BEA2EA81FE32E2518FC2EFF3019
:102DEA00A605FF30A7057F30A805FF30A905031007
:102DFA00A50C2508A000A101A201A3011830A03545
:102E0A00A10DA20DA30D890B042F2008A6042108E9
:102E1A00A7042208A8042308A9042408031DFC1FE8
:102E2A00172FA9172908FC002808FB002708FA0011
:102E3A002608F90008003C302000E8006808210054
:102E4A00D20020006608F3006508F2006408F10069
:102E5A006308F0000030F7000030F6000030F5009B
:102E6A000030F4009431F02497310318612F2D308B
:102E7A002000E80021005208860001308700200067
:102E8A00680881000130E80068082100D2072000A4
:102E9A006608F3006508F2006408F1006308F000B0
:102EAA0090313C20973173082000E6007208E50053
:102EBA007108E4007008E30020006608DB0065087A
:102ECA00DA006408D9006308D8009331BA2397312D
:102EDA0020005B082100D10020005A082100D00000
:102EEA00200059082100CF00200058082100CE00F8
:102EFA005108FC005008FB004F08FA004E08F90080
:102F0A00003096318A2697317C082000DB007B0846
:102F1A00DA007A08D9007908D8006608DF0065085F
:102F2A00DE006408DD006308DC009131102197316E
:102F3A0020005B08E6005A08E5005908E400580832
:102F4A00E3006608B1006508B0006408AF006308D2
:102F5A00AE004930AD007430AC002430AB00003014
:102F6A00AA008531AA25973120002D08DB002C08FC
:102F7A00DA002B08D9002A08D8009331BA239731EE
:102F8A0020005B082100CD0020005A082100CC0057
:102F9A00200059082100CB00200058082100CA004F
:102FAA0000302000AA008B30AB002100510820001D
:102FBA00AF00210050082000AE0021004F08200079
:102FCA00AD0021004E082000AC0021004D08200071
:102FDA00B30021004C082000B20021004B08200059
:102FEA00B10021004A082000B000210052088031B7
:102FFA0028203C30080001340034003400340A34FC
:10300A000034003400346434003400340034E834CA
:10301A000334003400341034273400340034A0342C
:10302A00863401340034403442340F34003480345E
:10303A009634983400340034E134F53405340034DD
:10304A00CA349A343B342034203420342034203497
:10305A0000345334743461343A34003453346F34A2
:10306A006C343A3400344334753472343A340034AC
:10307A004234613474343A3400344F34663466343A
:10308A000034423475346C34003446346C346F3452
:02309A00003400
:020000040001F9
:04000E00E2FFFBDE34
:00000001FF
