:08000000803102288731F62F40
:1008A200640080010131890B522C003420001508AC
:1008B200F0007008F1007108080020009111240076
:1008C2001614200091190800622C200091112400B6
:1008D20016152000911908006A2C20009111700849
:1008E20024009100200091190800732C2100191096
:1008F20099109915191699161917991308002400B9
:100902001508F039083895009516273092003430D2
:10091200F000F230890B8B2CF00B8B2C08007C083A
:1009220084007D0885001200031908007C088400F9
:100932007D088500000887317C2784310130FC075F
:100942000030FD3D902CF40084315E2484317830F7
:10095200F0000030F10084316E2484310030F00068
:10096200F10084316E2484317408F200F3017208BC
:10097200F0007308F10084316E24843184316624DE
:1009820008002000B8003808B500B6013508A400F8
:100992003608A5000A30A6000030A7003A3084319C
:1009A200E52484312000B7003708B9003908FC007B
:1009B2000030FD008431902484314130FC008B30C2
:1009C200FD008431902408002000A9002908FD00C0
:1009D2007D08A800A51FFD2C2D30FD0029088600EA
:1009E20087017D0881000130FD007D08A907A40967
:1009F200A509A40A0319A50A2508F9002408F80084
:100A02002708FB002608FA00290886315126200013
:100A120028080800F9007908B03E8431A424853101
:100A22007508F6000230F635FF3E031D142D7635AB
:100A32000F398431A42485317508F600F701F635A3
:100A4200F70DF635F70DF635F70D0430F800770D92
:100A5200F70CF60CF80B282D76080F39103E84316E
:100A6200A42408007008710403195A2DF501F50A2F
:100A7200F11B452D0130F035F10D890B3C2D013074
:100A8200F4007408F507392D71087302031D4B2D0C
:100A920070087202031C512D7008F2027108F33BB8
:100AA2000130F136F00C890B522D0130F502031D95
:100AB200452D7308F1007208F00008002000B4010F
:100AC200B50100303502083003193402031808005A
:100AD200B601B7010030370210300319360203188D
:100AE2008A2D3608FC007C08F500340885310B2578
:100AF2008531203087317C27853101302000B607CF
:100B02000030B73D00303702103003193602031CA3
:100B1200722D0130B4070030B53D622DF501F601AA
:100B2200700871040319BE2DF701F70AF11BA32DFA
:100B32000130F035F10D890B9A2D0130F400740863
:100B4200F707972D0130F535F60D890BA42D7108A5
:100B52007302031DAE2D70087202031CB52D7008BE
:100B6200F2027108F33B75140130F136F00C890B77
:100B7200B62D0130F702031DA32D7608F10075088A
:100B8200F000080084317724853123000E128E1282
:100B920021000E168E1655303C008F00AA308F00B1
:100BA2000F103D002408E0391138A4003C00210850
:100BB200E0391438A1002008E0391538A0003D00C2
:100BC2002508E0391038A5003C001108E039083842
:100BD200910055308F00AA308F000F142100951616
:100BE2009515200095018B160B1121000D14230081
:100BF2000D1008008531C32585318431802485316B
:100C02000B302000BD002630BC005D30890B072E62
:100C1200BC0B072EBD0B072E00328631B326853161
:100C220085315F25853115302000BD004B30BC0079
:100C3200BE30890B1A2EBC0B1A2EBD0B1A2E0000C9
:100C42002000BE018431572485312000BC003C08BD
:100C5200BE00F501003085310B2585312830FC00BE
:100C62008B30FD00843190248531F50101308531CE
:100C72000B25853120003E088431C2248531153090
:100C82002000BD004B30BC00BE30890B462EBC0B91
:100C9200462EBD0B462E000085315F258531232E61
:100CA2002000A3007908A1007808A0007B08F100C9
:100CB2007A08F0002108F3002008F20085318F2520
:100CC200863171082000A1007008A0000130FC00EC
:100CD2007C08A30720082104031D572E2308860041
:100CE200870181010130A3027B08F1007A08F0003C
:100CF2007908F3007808F2008531332586317008CF
:100D0200FC007C082000A2007B08F1007A08F000B9
:100D12007908F3007808F20085318F258631710851
:100D2200F9007008F8000A3020002202031C9D2EF0
:100D32000730FC007C08A2073030FC007C08A207C8
:100D42002208FC002308860087017C08810001300C
:100D5200A30278087904031D752E0130FC007C087B
:100D6200A3070800AE308431A4248631D530843103
:100D7200A424863180308431A4248631A830843181
:100D8200A42486311F308431A4248631D3308431A7
:100D9200A424863100308431A42486314030843149
:100DA200A42486318D308431A4248631AF3084313D
:100DB200A424863120308431A42486310030843149
:100DC200A4248631A1308431A4248631C8308431F0
:100DD200A4248631DA308431A4248631023084316D
:100DE200A424863181308431A42486318F30843129
:100DF200A4248631D9308431A4248631F13084315F
:100E0200A4248631DB308431A424863140308431FD
:100E1200A4248631A4308431A4248631A6308431BE
:100E2200A4248631AF308431A4240800F80071086C
:100E3200FA007008F9007808F4007408FB007B08D7
:100E4200F4000030F50075087A02031D2A2F740899
:100E520079020318602F72087907F40073087A3D4B
:100E6200F5007B08F6000030F70075087702031DD5
:100E72003C2F740876020318602F7208F907730872
:100E8200FA3D7208F4007408FB070130F9020030E1
:100E9200FA3B790884007A0885000008F4000130E2
:100EA200FB027B0886008701740881000130F20290
:100EB2000030F33B7208730403190800462F7208CE
:100EC200730403190800790884007A088500000871
:100ED200F4007B0886008701740881000130F9075D
:100EE2000030FA3D0130F4007408FB070130F202D1
:100EF2000030F33B602F2000B30020303302031C8C
:100F0200862F80303302031C8A2F2030A000200855
:100F1200B3003308A000A101A035A10DA035A10D99
:100F2200A035A10D2008003EA200FF30213DA30004
:100F32002830A4008830A50022082407AF00230827
:100F4200253DB0004030A0002008A6003008F10086
:100F52002F08F0000830F2000030F300273087310C
:100F62001727873184315E2487317830F0000030D2
:100F7200F10084316E2487314030F0000030F100FE
:100F820084316E24873101302000B1000030B2007C
:100F92003208803AA00080302002031DD22F09308F
:100FA20031020318F32F20003108263E8600870104
:100FB2000108A000A1012008F0002108F1008431FD
:100FC2006E24873101302000B1070030B23D320873
:100FD200803AA00080302002031DF12F0930310237
:100FE200031CD42F8431662408003F308400003073
:100FF200850011308431512420008531FB2D0134CC
:101002000034003400340A340034003400346434D0
:10101200003400340034E834033400340034103433
:10102200273400340034A034863401340034403490
:1010320042340F340034803496349834003400340F
:10104200E134F53405340034CA349A343B34003484
:1010520000340034003400340034003400340034EE
:1010620000345F340034003400340034003400347F
:1010720000340734003407340034003400340034C0
:1010820014347F3414347F34143400340034003484
:1010920024342A347F342A341234003400340034A5
:1010A200233413340834643462340034003400349A
:1010B2003634493455342234503400340034003448
:1010C2000034053403340034003400340034003476
:1010D2001C342234413400340034003400340034EF
:1010E200413422341C3400340034003400340034DF
:1010F20008342A341C342A340834003400340034CE
:10110200083408343E3408340834003400340034DF
:10111200A03460340034003400340034003400342D
:1011220008340834083408340834003400340034F5
:10113200603460340034003400340034003400344D
:1011420020341034083404340234003400340034BF
:101152003E345134493445343E3400340034003492
:10116200003442347F3440340034003400340034DC
:101172006234513449344934463400340034003442
:101182002234413449344934363400340034003492
:101192001834143412347F341034003400340034E0
:1011A200273445344534453439340034003400346E
:1011B2003C344A3449344934303400340034003445
:1011C20001347134093405340334003400340034FA
:1011D2003634493449344934363400340034003426
:1011E20006344934493429341E340034003400347E
:1011F20000343634363400340034003400340034E1
:101202000034AC346C340034003400340034003424
:1012120008341434223441340034003400340034AD
:1012220014341434143414341434003400340034B8
:10123200413422341434083400340034003400348D
:101242000234013451340934063400340034003499
:1012520032344934793441343E3400340034003479
:101262007E340934093409347E34003400340034C5
:101272007F3449344934493436340034003400343C
:101282003E34413441344134223400340034003499
:101292007F344134413422341C340034003400346D
:1012A2007F34493449344934413400340034003401
:1012B2007F340934093409340134003400340034F1
:1012C2003E344134413451347234003400340034F9
:1012D2007F340834083408347F3400340034003456
:1012E20041347F344134003400340034003400345B
:1012F2002034403441343F3401340034003400346B
:101302007F3408341434223441340034003400343D
:101312007F344034403440344034003400340034AC
:101322007F3402340C3402347F340034003400340D
:101332007F340434083410347F34003400340034F1
:101342003E344134413441343E34003400340034BC
:101352007F3409340934093406340034003400344B
:101362003E344134513421345E340034003400348C
:101372007F340934193429344634003400340034BB
:101382002634493449344934323400340034003488
:10139200013401347F340134013400340034003428
:1013A2003F344034403440343F340034003400345D
:1013B2001F342034403420341F34003400340034CD
:1013C2003F344034383440343F3400340034003445
:1013D2006334143408341434633400340034003475
:1013E20003340434783404340334003400340034D5
:1013F20061345134493445344334003400340034C8
:101402007F34413441340034003400340034003439
:1014120002340434083410342034003400340034EC
:10142200413441347F340034003400340034003419
:1014320004340234013402340434003400340034FD
:10144200803480348034803480340034003400347A
:1014520001340234043400340034003400340034E3
:101462002034543454345434783400340034003446
:101472007F34483444344434383400340034003443
:1014820038344434443428340034003400340034D2
:1014920038344434443448347F3400340034003423
:1014A200383454345434543418340034003400344E
:1014B20008347E34093402340034003400340034F9
:1014C2001834A434A434A4347C34003400340034FA
:1014D2007F34083404340434783400340034003463
:1014E20000347D34003400340034003400340034DD
:1014F200803484347D3400340034003400340034C9
:101502007F3410342834443400340034003400343E
:1015120041347F3440340034003400340034003429
:101522007C34043418340434783400340034003405
:101532007C34083404347C34003400340034003405
:101542003834443444343834003400340034003401
:10155200FC3424342434183400340034003400348D
:10156200183424342434FC3400340034003400347D
:1015720000347C3408340434003400340034003441
:1015820048345434543424340034003400340034A5
:1015920004347F34443400340034003400340034E2
:1015A2003C34403440347C34003400340034003461
:1015B2001C342034403420341C34003400340034D1
:1015C2003C344034303440343C3400340034003451
:1015D2004434283410342834443400340034003481
:1015E2001C34A034A0347C34003400340034003481
:1015F2004434643454344C344434003400340034BD
:1016020008343634413400340034003400340034B9
:1016120000347F34003400340034003400340034A9
:101622004134363408340034003400340034003499
:101632000234013401340234013400340034003401
:1016420002340534053402340034003400344334A7
:1016520075347234723465346E34743420344334E5
:101662006F3475346E347434003425346C3475340C
:101672002E34253436342E3436346C3475340034FA
:0C16820020342034203420342034003484
:020000040001F9
:04000E00A4D9FFDE94
:00000001FF
