:0400000080311A2809
:100008007E148031200091100130F1007108F00752
:100018007A307006031D112812281628F0012200D4
:100028008F14182822008F107E10090080311C2898
:10003800F0017E1020008031472880313E20803139
:1000480021008F1022008F1021008F0123008F01C3
:1000580020001C08FC3902389C00FF309B009A01E4
:100068001C08873970389C001C15210091140B1747
:100078008B17080021001910991099111916991653
:100088001917991708008031212080314A288031BA
:020098001A2824
:020000040001F9
:04000E00BC19FF1EFC
:00000001FF
