:08000000803102288731FC2F3A
:100F3E0020001508F0007008F1007108080021006B
:100F4E001910991099151916991619179913080051
:100F5E008731D0278731C32F22008F142930F40018
:100F6E009630F300A630F200F20BBB2FF30BBB2F23
:100F7E00F40BBB2F2000950187319F278731F2009C
:100F8E007208F500053075060319B32F22008F1075
:100F9E00C32F8731A627873121008F1022008F1093
:100FAE0021000D1423000D1021009516951500300B
:100FBE008B1B0130F0008B1355303C008F00AA3094
:100FCE008F000F101108E0390838910055308F004E
:100FDE00AA308F000F14701CF62F8B17F72F8B1360
:100FEE00200095018B160B110800F60120008731A9
:020FFE00AF2F13
:020000040001F9
:04000E00A4D9FFDE94
:00000001FF
