:04000000803116280D
:100008007E1480318B1022008F147A30F100C130B9
:10001800F0008230890B0E28F00B0E28F10B0E2809
:100028007E100900803118287E10200080311C289D
:10003800803147208031F401031022008F1C031403
:10004800031827282A2822008F142C2822008F1012
:100058000B30F3002630F2005E30890B3128F20BAA
:100068003128F30B31280130F2007208F4070A3006
:100078007406031D40284128202822008F106300A1
:100088001F288031162880316320803121008F108D
:1000980022008F1021000D1423000D103C001008C1
:1000A800E0390838900055308F00AA308F000130B1
:1000B8008F00210015138B100B168B1708002100D9
:1000C80019109910991119169916191799170800E6
:020000040001F9
:04000E00A419FF1E14
:00000001FF
