:10000000803102288731EF2F7308F9007208F80059
:100010007108F7007008F600212878088400790834
:1000200085000008FA000130F8070030F93D760835
:100030008600770887007A0881000130F6070030D3
:10004000F73D0130F4020030F53B740A031D2C2803
:10005000750A031D2C282D280D2808000030FC00EF
:100060000030FB000030FA000030F9007308720421
:100070007104700403193D283E287F28FD01FD0A04
:100080004C280130F035F10DF20DF30D890B4228AB
:100090000130F8007808FD07F31F4F285028412849
:1000A0000130F935FA0DFB0DFC0D890B5128730851
:1000B0007702031D652872087602031D6528710802
:1000C0007502031D652870087402031C68286928DE
:1000D00072287008F4027108F53B7208F63B730849
:1000E000F73B79140130F336F20CF10CF00C890B6C
:1000F00073280130FD02031D7E287F2850287C08CC
:10010000F3007B08F2007A08F1007908F00008009B
:10011000F601F11F8C288D289428F009F109F00AC6
:100120000319F10AF601F60AF31F97289828A12867
:10013000F209F309F20A0319F30A0130F400740812
:10014000F606F701F801700871040319A828A92818
:10015000D828F501F50AB5280130F035F10D890BE5
:10016000AD280130F4007408F507F11FB828B9284C
:10017000AC280130F735F80D890BBA2871087302E5
:10018000031DC42870087202031CC728C828CD2884
:100190007008F2027108F33B77140130F136F00C6D
:1001A000890BCE280130F502031DD728D828B9289D
:1001B00076080319DC28DD28E228F709F809F70A90
:1001C0000319F80A7808F1007708F0000800F20037
:1001D000202921000C1423000C144B2921008C141D
:1001E00023008C144B2921000C1523000C154B29DE
:1001F00021008C1523008C154B2921000C1623009F
:100200000C164B2921008C1623008C164B2921003B
:100210000D1423000D144B2921008D1423008D147F
:100220004B2921008D1523008D154B2921000D161A
:1002300023000D164B2921008D1623008D164B2906
:100240007208F000F1017108003A031928294B29BE
:100250007008003A0319E928013A0319EE28033A15
:100260000319F328013A0319F828073A0319FD285E
:10027000013A031902290D3A03190729013A031912
:100280000C29033A03191129013A03191629073ACF
:1002900003191B294B2908002000A6000030AA00E2
:1002A0000030A9000030A8000030A7002608A200F6
:1002B000A20DA20D21001D0820002206833922066E
:1002C00021009D001D143530890B64290000200099
:1002D000AB01952921009D149D186F2970296C2967
:1002E0001B082000A70721001C082000A83D0030A3
:1002F000A93DAA3D2008FF3EA200FF3003180030B0
:10030000A3002308803A803C031D882922082B0281
:1003100003188B298C2990290D30890B8D29000019
:1003200001302000A2002208AB0720082B02031C8A
:100330009A299B296A292008A200A301A401A501EA
:100340002508F3002408F2002308F1002208F00039
:100350002A08F7002908F6002808F5002708F40005
:1003600080312E20813171082000A1007008A0008A
:1003700008006830FD00E430890BBC29FD0BBC2966
:100380000032AE308D31642581312E308D316425BF
:100390008131D5308D316425813180308D316425B6
:1003A0008131A8308D31642581311F308D31642534
:1003B0008131D3308D316425813100308D31642518
:1003C000813140308D31642581318D308D3164250E
:1003D000813114308D316425813120308D31642597
:1003E000813102308D3164258131A1308D31642518
:1003F0008131C8308D3164258131DA308D31642509
:10040000813102308D316425813181308D31642517
:1004100081318F308D3164258131D9308D31642522
:100420008131F1308D3164258131DB308D316425AE
:10043000813140308D3164258131A4308D31642586
:100440008131A6308D3164258131AF308D31642505
:1004500081318E31BF2681310800FA01F71F312A20
:10046000322A3F2AF409F509F609F709F40A0319B3
:10047000F50A0319F60A0319F70AFA01FA0AF31F33
:10048000422A432A4E2AF009F109F209F309F00A37
:100490000319F10A0319F20A0319F30A7308720423
:1004A000710470040319552A562A8F2AF901F90A92
:1004B000642A0130F035F10DF20DF30D890B5A2A43
:1004C0000130F8007808F907F31F672A682A592ACB
:1004D00073087702031D762A72087602031D762AB6
:1004E00071087502031D762A70087402031C792AAC
:1004F0007A2A822A7008F4027108F53B7208F63BEA
:100500007308F73B0130F336F20CF10CF00C890B59
:10051000832A0130F902031D8E2A8F2A682A7A085D
:100520000319932A942A9F2AF409F509F609F70971
:10053000F40A0319F50A0319F60A0319F70A7708EA
:10054000F3007608F2007508F1007408F000080066
:100550002000A101F31FAD2AAE2ABB2AF009F10940
:10056000F209F309F00A0319F10A0319F20A03194F
:10057000F30AA101A10AF71FBE2ABF2ACE2AF40955
:10058000F509F609F709F40A0319F50A0319F60A39
:100590000319F70A0130F8007808A1060030A50019
:1005A0000030A4000030A3000030A20073087204E1
:1005B000710470040319DD2ADE2A1F2BA001A00A92
:1005C000EC2A0130F035F10DF20DF30D890BE22A22
:1005D0000130F8007808A007F31FEF2AF02AE12A7B
:1005E0000130A235A30DA40DA50D890BF12A7308C6
:1005F0007702031D052B72087602031D052B710877
:100600007502031D052B70087402031C082B092BAF
:10061000122B7008F4027108F53B7208F63B730860
:10062000F73B22140130F336F20CF10CF00C890B7D
:10063000132B0130A002031D1E2B1F2BF02A2108B3
:100640000319232B242B2F2BA209A309A409A509E5
:10065000A20A0319A30A0319A40A0319A50A250863
:10066000F3002408F2002308F1002208F00008003B
:100670008F315C2783318B31F52383318131B9216F
:10068000833100308E31342683318E31BF26833161
:100690008B31DF23833122008E1104302100CE0004
:1006A0001C30890B512BCE0B512B00000830200041
:1006B000A000003081314C2183312000210821002D
:1006C000D300200020082100D20022008E15043023
:1006D0002100CE001C30890B6B2BCE0B6B2B000046
:1006E00008302000A000003081314C2183312000EF
:1006F00021082100D100200020082100D00050084E
:100700005202D4005108533BD500D51F882B892BAA
:100710008B2BD401D5015708F1005608F0000330A7
:10072000F2000030F3008C315E2483312100540844
:100730007007CE005508713DCF00CF36CE0CCF36B6
:10074000CE0C4E08D6004F08D70000302000A6007F
:100750008B30A700210053082000A9002100520877
:100760002000A800210051082000AB002100500803
:100770002000AA0000308331DB2383310A302000BF
:10078000A6009030A700210057082000A9002100F2
:1007900056082000A80001308331DB238331D0309C
:1007A0002100CE00C930890BD32BCE0BD32B0032C6
:1007B0004B2B803102282100C9004E30CD00200093
:1007C00027082100CC00200026082100CB0004309F
:1007D0004902031CEC2BED2BEE2BEE2F2830CA0028
:1007E000FE2E4B0884004C0885001200253A031D9C
:1007F000FA2BFB2BEB2E0130CB070030CC3DCB2E60
:100800004A0886008701403FC700413FC8000230C8
:100810002000AC002C082100CA07C81F102C112C86
:10082000212C4D08860087012D30810001302000E9
:10083000AC002C082100CD07C709C809C70A031955
:10084000C80ABE013E08A03E860087010A30F000BB
:100850000030F1004808F3004708F2008F31AD275F
:1008600083317008303E810001302000AC002C083C
:100870002100BE070A30F0000030F1004808F30004
:100880004708F20080318820833171082100C800B8
:100890007008C7004708480403194F2C502C662CD9
:1008A00006303E02031C552C562C222C662C4D087B
:1008B000860087013E08A03E840085010008810073
:1008C00001302000AC002C082100CD070130BE0211
:1008D0003E0A031D6C2C6D2C572CE62E0130CB07E5
:1008E0000030CC3D4B0884004C0885001200753A5E
:1008F000031D7B2C7C2CF02C4A0886008701403F8E
:10090000B600413FB700423FB800433FB900043052
:100910002000AC002C082100CA07BF013F08383E68
:10092000860087010030F3000030F2000030F10053
:100930000A30F0003908F7003808F6003708F500EB
:100940003608F4008E31752683317008303E810000
:1009500001302000AC002C082100BF070030F3005C
:100960000030F2000030F1000A30F0003908F700E2
:100970003808F6003708F5003608F40080312E20DC
:10098000833173082100B9007208B8007108B700FC
:100990007008B60039083804370436040319D12C1E
:1009A000D22CE82C0B303F02031CD72CD82C8E2CD9
:1009B000E82C4D08860087013F08383E84008501F9
:1009C0000008810001302000AC002C082100CD0778
:1009D0000130BF023F0A031DEE2CEF2CD92CAD2DA8
:1009E0004B0884004C0885001200643A031DF92C62
:1009F000FA2C882D4A0886008701403FC300413FFA
:100A0000C400423FC500433FC60004302000AC0094
:100A10002C082100CA07C61F0E2D0F2D252D4D08AD
:100A2000860087012D30810001302000AC002C08A9
:100A30002100CD07C309C409C509C609C30A0319A2
:100A4000C40A0319C50A0319C60AC0014008433E77
:100A5000860087010030F3000030F2000030F10022
:100A60000A30F0004608F7004508F6004408F50093
:100A70004308F40082312D2283317008303E81001A
:100A800001302000AC002C082100C0070030F3002A
:100A90000030F2000030F1000A30F0004608F700A4
:100AA0004508F6004408F5004308F4008231A82206
:100AB000833173082100C6007208C5007108C400A4
:100AC0007008C30046084504440443040319692D13
:100AD0006A2D802D0B304002031C6F2D702D262DAA
:100AE000802D4D08860087014008433E8400850123
:100AF0000008810001302000AC002C082100CD0747
:100B00000130C002400A031D862D872D712DAD2DA9
:100B10004D08860087012530810001302000AC009F
:100B20002C082100CD074D08860087016C3081001C
:100B300001302000AC002C082100CD074D088600B4
:100B400087014B0884004C088500000881000130B3
:100B50002000AC002C082100CD070130CB0700306D
:100B6000CC3DE62E4A0886008701403FBA00413F4F
:100B7000BB0002302000AC002C082100CA07C101D4
:100B80004108A63E860087010A30F0000030F100DF
:100B90003B08F3003A08F2008D31C4258331700818
:100BA000303E810001302000AC002C082100C1073C
:100BB0000A30F0000030F1003B08F3003A08F20080
:100BC0008D31F825833171082100BB007008BA000F
:100BD0003A083B040319ED2DEE2D042E0630410298
:100BE000031CF32DF42DC02D042E4D088600870123
:100BF0004108A63E840085010008810001302000E4
:100C0000AC002C082100CD070130C102410A031DB0
:100C10000A2E0B2EF52DE62E4A0886008701403F4E
:100C2000B100413FB20002302000AC002C0821008E
:100C3000CA07C20131080F39BC000A303C02031C4C
:100C4000222E232E2C2E3C08373E2000EE000030B2
:100C500003180130EF00342E3C08303E2000EE0037
:100C6000003003180130EF0021004208AC3E86003E
:100C7000870120006E0881000130AC002C082100A3
:100C8000C2070430B236B10C890B422E310832044F
:100C900003194B2E4C2E622E05304202031C512E9E
:100CA000522E1A2E622E4D08860087014208AC3E55
:100CB000840085010008810001302000AC002C0870
:100CC0002100CD070130C202420A031D682E692EA1
:100CD000532EE62E4A08860087010108B300013032
:100CE0002000AC002C082100CA078A2E4D0886007F
:100CF000870133088400850100088100013020004D
:100D0000AC002C082100B30701302000AC002C08F7
:100D10002100CD0733088600870101080319912EB1
:100D2000922EE62E4E304D02803A613E031C992EE3
:100D30009A2E762EE62E4D08860087014A088400FA
:100D400085010008810002302000AC002C08210041
:100D5000CA0701302000AC002C082100CD07E62E88
:100D60004D088600870125308100A92E4D08860098
:100D700087012530810001302000AC002C082100C3
:100D8000CD074D08860087014B0884004C0885007C
:100D900000088100A92E4B0884004C08850000083B
:100DA000253A0319B02E463A03199B2E073A031928
:100DB000002C083A03196E2C1F3A03196A2E063AC2
:100DC0000319B22D0D3A03190C2EB62E0130CB07A4
:100DD0000030CC3DFE2E4D08860087014B08840074
:100DE0004C088500000881000130CB070030CC3D65
:100DF00001302000AC002C082100CD074B088400F6
:100E00004C08850012000319062F072F0F2F4E30B4
:100E10004D02803A613E031C0E2F0F2FF12B4D081F
:100E200086008701810149082000AC00AD01053032
:100E3000AC35AD0D890B182FF030AE002630AF0069
:100E40002C082E07B0002D082F3DB1003008F0000F
:100E50003108F1004E308D3137258331700871042F
:100E6000031D332F342F352FEE2F2100490820008A
:100E7000AC00AD010530AC35AD0D890B3B2FF0302A
:100E8000AE002630AF002C082E07F0002D082F3DB5
:100E9000F1004E30F2008C310924833121004908E1
:100EA0002000AC00AD010730AC35AD0D890B542FDF
:100EB000F030AE002430AF002C082E07F0002D08D3
:100EC0002F3DF1000030F200F3008030F4000030DC
:100ED000F5008C31242483312100B4014E30B5005B
:100EE000CC2F21003508860087010108BD00203085
:100EF0003D02031C7C2F7D2F832F80303D02031C7D
:100F0000822F832F852F2030BD0034082000AC00B5
:100F1000AD01210049082000AE00AF010730AE3519
:100F2000AF0D890B8F2FF030B0002430B1002E08A8
:100F30003007B2002F08313DB3002C083207F00013
:100F40002D08333DF10021003D08E03E2000B400B3
:100F5000B501B435B50DB435B50DB435B50D0030AA
:100F6000B6008830B70034083607F2003508373D40
:100F7000F3000830F4000030F500803104208331A4
:100F800008302000AC002C082100B40701302000FC
:100F9000AC002C082100B507350886008701010840
:100FA0000319D32FD42FE92F3408083E2000AC00BA
:100FB000003003180130AD002D08803AAE008030BB
:100FC0002E02031DE52F81302C02031CE82FE92F90
:100FD000712F210049088D310B2583310800F03035
:100FE0008400243085000030FE000330FF008B3188
:100FF000E92387312100D601D70120008331382B26
:101000000034003400340034003400340034003440
:10101000003400345F3400340034003400340034D1
:101020000034003407340034073400340034003412
:10103000003414347F3414347F34143400340034D6
:10104000003424342A347F342A34123400340034F7
:1010500000342334133408346434623400340034EC
:10106000003436344934553422345034003400349A
:1010700000340034053403340034003400340034C8
:1010800000341C3422344134003400340034003441
:101090000034413422341C34003400340034003431
:1010A000003408342A341C342A3408340034003420
:1010B0000034083408343E34083408340034003432
:1010C0000034A03460340034003400340034003480
:1010D0000034083408340834083408340034003448
:1010E00000346034603400340034003400340034A0
:1010F0000034203410340834043402340034003412
:1011000000343E345134493445343E3400340034E4
:101110000034003442347F3440340034003400342E
:101120000034623451344934493446340034003494
:1011300000342234413449344934363400340034E4
:1011400000341834143412347F3410340034003432
:1011500000342734453445344534393400340034C0
:1011600000343C344A344934493430340034003497
:10117000003401347134093405340334003400344C
:101180000034363449344934493436340034003478
:10119000003406344934493429341E3400340034D0
:1011A0000034003436343634003400340034003433
:1011B00000340034AC346C34003400340034003477
:1011C0000034083414342234413400340034003400
:1011D000003414341434143414341434003400340B
:1011E00000344134223414340834003400340034E0
:1011F00000340234013451340934063400340034EC
:10120000003432344934793441343E3400340034CB
:1012100000347E340934093409347E340034003417
:1012200000347F344934493449343634003400348E
:1012300000343E34413441344134223400340034EB
:1012400000347F344134413422341C3400340034BF
:1012500000347F3449344934493441340034003453
:1012600000347F3409340934093401340034003443
:1012700000343E344134413451347234003400344B
:1012800000347F340834083408347F3400340034A8
:10129000003441347F3441340034003400340034AD
:1012A00000342034403441343F34013400340034BD
:1012B00000347F3408341434223441340034003490
:1012C00000347F34403440344034403400340034FF
:1012D00000347F3402340C3402347F340034003460
:1012E00000347F340434083410347F340034003444
:1012F00000343E344134413441343E34003400340F
:1013000000347F340934093409340634003400349D
:1013100000343E344134513421345E3400340034DE
:1013200000347F340934193429344634003400340D
:1013300000342634493449344934323400340034DA
:101340000034013401347F3401340134003400347A
:1013500000343F344034403440343F3400340034AF
:1013600000341F342034403420341F34003400341F
:1013700000343F344034383440343F340034003497
:1013800000346334143408341434633400340034C7
:101390000034033404347834043403340034003427
:1013A000003461345134493445344334003400341A
:1013B00000347F344134413400340034003400348C
:1013C000003402340434083410342034003400343F
:1013D0000034413441347F3400340034003400346C
:1013E0000034043402340134023404340034003450
:1013F00000348034803480348034803400340034CD
:101400000034013402340434003400340034003435
:101410000034203454345434543478340034003498
:1014200000347F3448344434443438340034003495
:101430000034383444344434283400340034003424
:10144000003438344434443448347F340034003475
:1014500000343834543454345434183400340034A0
:10146000003408347E34093402340034003400344B
:1014700000341834A434A434A4347C34003400344C
:1014800000347F34083404340434783400340034B5
:10149000003400347D34003400340034003400342F
:1014A0000034803484347D3400340034003400341B
:1014B00000347F3410342834443400340034003491
:1014C000003441347F34403400340034003400347C
:1014D00000347C3404341834043478340034003458
:1014E00000347C34083404347C3400340034003458
:1014F0000034383444344434383400340034003454
:101500000034FC34243424341834003400340034DF
:101510000034183424342434FC34003400340034CF
:10152000003400347C340834043400340034003493
:1015300000344834543454342434003400340034F7
:10154000003404347F344434003400340034003434
:1015500000343C34403440347C34003400340034B3
:1015600000341C342034403420341C340034003423
:1015700000343C344034303440343C3400340034A3
:1015800000344434283410342834443400340034D3
:1015900000341C34A034A0347C34003400340034D3
:1015A00000344434643454344C344434003400340F
:1015B000003408343634413400340034003400340C
:1015C000003400347F3400340034003400340034FC
:1015D00000344134363408340034003400340034EC
:1015E0000034023401340134023401340034003454
:1015F000003402340534053402340034003400343D
:101600004F34463446343A342534753420344F341C
:0A1610004E343A34253475340034AA
:10179A007830080024001513951320009211911136
:1017AA00080021001910991099111916991619177C
:1017BA009917080021001E088F3920389E009E17AD
:1017CA001E11FC309E0508006400800101310130C1
:1017DA00FE020030FF3B7F087E04031DEA2B003423
:1017EA0024001508F0390838950095164F309200F4
:1017FA008B31CF238B316830F000E430890B032C16
:10180A00F00B032C003208007108F6007008F5008E
:10181A007608F4007508F300F50A0319F60A730846
:10182A00860074088700720884008501F20A00089D
:10183A00C03F8908031D222C232C0D2C0800710897
:10184A00F7007008F600332C7608860077088700C0
:10185A00720881000130F6070030F73D0130F402CA
:10186A000030F53B740A031D3E2C750A031D3E2CFD
:10187A003F2C292C0800502C2000911D452C462C69
:10188A00482C00305D2C0B30F2006230890B4B2C57
:10189A00F20B4B2C00320130F0020030F13B700A9F
:1018AA00031D5B2C710A031D5B2C5C2C412C02303E
:1018BA000800F401F501701C632C642C682C720872
:1018CA00F4077308F53D0130F235F30D890B692CE5
:1018DA000130F136F00C890B6E2C70087104031D6F
:1018EA00772C782C602C7508F1007408F000080039
:1018FA00F9007708F8000230F835FF3E031D812C05
:10190A007835FA0079080739B0388D3164258C3179
:10191A007A080F398D3164258C317A08F800043041
:10192A00F836890B952C78080F3910388D316425D3
:10193A008C3108003230F0000030F1008C31C224C2
:10194A008C31F30073080319AB2CAC2CAD2CC12CD1
:10195A0020009111240016153230F0000030F100F9
:10196A008C3140248C31F30073080319BD2CBE2C32
:10197A00BF2CC12C200091110800D82C2400160875
:10198A001F39031DC92CCA2CD02C1419CD2CCE2CCE
:10199A00D02C0030E52C0B30F2006230890BD32CAE
:1019AA00F20BD32C00320130F0020030F13B700A06
:1019BA00031DE32C710A031DE32CE42CC32C023013
:1019CA0008003230F0000030F1008C31C2248C3132
:1019DA00F30073080319F22CF32CF52C73080A2D63
:1019EA0020009111240016143230F0000030F1006A
:1019FA008C3140248C31F30073080319052D062D10
:101A0A00072DF32C2000911100300800FC0004304F
:101A1A007C02031C112D122D132D362DF7017C0883
:101A2A008C317D248D317C082000A000A101073073
:101A3A00A035A10D890B1D2DF030A2002430A30082
:101A4A0020082207A4002108233DA5002408F50048
:101A5A002508F6008030F7000030F8008F310C2797
:101A6A008D310800F300412D0130F2007208F307AE
:101A7A000130F0070030F13D7008860071088700D8
:101A8A0073088400850100080106031D4D2D4E2DA3
:101A9A00562D7308860087010108031D552D562D02
:101AAA00392D730886008701700884007108850043
:101ABA0000080102F000F101031CF1030800F5001F
:101ACA008C31E6248D31F600760803196D2D6E2DC2
:101ADA006F2D912D8B31CD238D318D3192258D3105
:101AEA00F600760803197A2D7B2D7F2D8C319F24E1
:101AFA008D31912D00308D3192258D31F600760889
:101B0A000319882D892D8A2D7B2D75088D319225F3
:101B1A008D318C319F248D310800F3003230F00072
:101B2A000030F1008C31C2248D31F400740803199D
:101B3A009F2DA02DA22D7408C32D2000911173088A
:101B4A00240091003230F0000030F1008C31402442
:101B5A008D31F40074080319B32DB42DB52DA02DC1
:101B6A002000921DB92DBA2DBD2D92110330C32D1F
:101B7A0091112400160E890C890C0139080070088D
:101B8A0071040319C92DCA2DF32DF501F50AD62DB5
:101B9A000130F035F10D890BCE2D0130F4007408B7
:101BAA00F507F11FD92DDA2DCD2D71087302031D0A
:101BBA00E02D70087202031CE32DE42DE82D700855
:101BCA00F2027108F33B0130F136F00C890BE92D72
:101BDA000130F502031DF22DF32DDA2D7308F10001
:101BEA007208F0000800F501F60170087104031983
:101BFA00FF2D002E2F2EF701F70A0C2E0130F0359B
:101C0A00F10D890B042E0130F4007408F707F11F57
:101C1A000F2E102E032E0130F535F60D890B112EDD
:101C2A0071087302031D1B2E70087202031C1E2EFC
:101C3A001F2E242E7008F2027108F33B751401302E
:101C4A00F136F00C890B252E0130F702031D2E2EDA
:101C5A002F2E102E7608F1007508F0000800F90002
:101C6A002E308D3164258E315E2EA1308D31642562
:101C7A008E31C8308D3164258E31742EA0308D316D
:101C8A0064258E31C0308D3164258E31742EA0309A
:101C9A008D3164258E31C8308D3164258E31742E94
:101CAA00A1308D3164258E31C0308D3164258E315D
:101CBA00742E7908F700F8017808003A0319662E9D
:101CCA003A2E7708003A03193A2E013A0319432E9D
:101CDA00033A03194C2E013A0319552E3A2E0800DD
:101CEA00730872047104700403197C2E7D2EB62EBB
:101CFA00F901F90A8B2E0130F035F10DF20DF30DD1
:101D0A00890B812E0130F8007808F907F31F8E2E0F
:101D1A008F2E802E73087702031D9D2E720876027D
:101D2A00031D9D2E71087502031D9D2E70087402F5
:101D3A00031CA02EA12EA92E7008F4027108F53BEF
:101D4A007208F63B7308F73B0130F336F20CF10CDC
:101D5A00F00C890BAA2E0130F902031DB52EB62EFE
:101D6A008F2E7708F3007608F2007508F1007408E0
:101D7A00F0000800FC017C082000A000A101073047
:101D8A00A035A10D890BC52EF030A2002430A30086
:101D9A0020082207F0002108233DF1000030F2005C
:101DAA00F3008030F4000030F5008C3124248E31A9
:101DBA00F7017C088C317D248E317C082000A0003C
:101DCA00A1010730A035A10D890BE72EF030A20042
:101DDA002430A30020082207A4002108233DA500DF
:101DEA002408F5002508F6008030F7000030F800D6
:101DFA008F310C278E3101302000A0002008FC070B
:101E0A0004307C02031C0A2F0B2FC02E0800750811
:101E1A007604031D112F122F132F5B2F8C31E6240A
:101E2A008F31FB007B0803191B2F1C2F1D2F5B2FE3
:101E3A008B31CD238F318D3192258F31FB007B0879
:101E4A000319282F292F2D2F8C319F248F315B2F97
:101E5A0040308D3192258F31FB007B080319362FD4
:101E6A00372F382F292FF901FA01502F75087907D2
:101E7A00840076087A3D850000088D3192258F31DD
:101E8A00FB007B0803194A2F4B2F4C2F292F0130B7
:101E9A00F9070030FA3D78087A02031D562F7708B1
:101EAA007902031C592F5A2F3B2F292F08008B31F7
:101EBA00D6238F316830F300E430890B622FF30B9D
:101ECA00622F003221000D1123000D118E11210005
:101EDA008E1122008E1123000E128E1221000E1670
:101EEA008E1655303C008F00AA308F000F103D002F
:101EFA001A08E03914389A003C002408E0390B38F3
:101F0A00A4003D002408E0391138A4003C0021084F
:101F1A00E0391438A1002008E0391538A0003D0046
:101F2A002508E0391038A50055303C008F00AA304A
:101F3A008F000F1421001E088F3920389E009E172B
:101F4A001E11FC309E0500308031E7208F310800D9
:101F5A00F601F31FB12FB22FB92FF209F309F20AD2
:101F6A000319F30AF601F60AF11FBC2FBD2FC22F7F
:101F7A00F009F109F00A0319F10A7008710403194A
:101F8A00C72FC82FF12FF501F50AD42F0130F035EC
:101F9A00F10D890BCC2F0130F4007408F507F11FFD
:101FAA00D72FD82FCB2F71087302031DDE2F70088D
:101FBA007202031CE12FE22FE62F7008F202710869
:101FCA00F33B0130F136F00C890BE72F0130F502B3
:101FDA00031DF02FF12FD82F76080319F52FF62FAE
:101FEA00FB2FF209F309F20A0319F30A7308F10045
:101FFA007208F0000800FF348134BD34BD34BD34AA
:10200A008134FF34183400340034493452343A34B9
:06201A002534753400348A
:020000040001F9
:04000E00A419FF1E14
:00000001FF
