:08000000803102288731FD2F39
:100EEA00F0007008250091000800F10071088731B0
:100EFA0075278731080021001910991099111916C0
:100F0A0099161917991708008731C2278731F401F2
:100F1A00740887317A2787310230F3000430F200EF
:100F2A00BA30890B962FF20B962FF30B962F0032BD
:100F3A000130F2007208F407740A031DA52FA62FC8
:100F4A008D2FFF30F500750887317A2787310230F7
:100F5A00F3000430F200BA30890BB12FF20BB12F33
:100F6A00F30BB12F00320130F5027508031DBE2FB5
:100F7A00BF2FA82F8C2F80310228873180278731F5
:100F8A000330F1000830F0007730890BCA2FF00BDC
:100F9A00CA2FF10BCA2F000021000D1023008D016A
:100FAA0025001E08FC3902389E00FC3028009E05E8
:100FBA001E15FF309D00CF30250093051308F03928
:100FCA000C38930055303C008F00AA308F000F1068
:100FDA003D001808E0390C3898001908E0390D3836
:100FEA00990055303C008F00AA308F000F1408007A
:060FFA0020008731892F61
:020000040001F9
:04000E00A419FF1E14
:00000001FF
