:08000000803102288731F62F40
:10071800640080010131890B8D2B0034F00020002A
:10072800111E932B700823009A00080000308331B3
:10073800CB23833101308331CB23080021001910EA
:100748009910991519169916191799130800230065
:100758009D162000911EAD2B23009D1CB52B9D13CB
:100768009D171908080020003008A5002F08A400CC
:100778000A30A6000030A7003130843114248331B8
:100788002000AA000030AB008331F8230800F300F2
:1007980020000F1173088331E023833120008F1567
:1007A8001530F200C630F100F10BD82BF20BD82B24
:1007B800000020008F110800F000701CE62B2000BC
:1007C8000F16E82B20000F12F01CEC2B8F16ED2BC8
:1007D8008F12701DF12B0F17F22B0F13F01DF62B34
:1007E8008F1708008F1308002000AD01AE012A08FA
:1007F8002D0784002B082E3D8500120003190800E0
:100808002A082D0784002B082E3D85000008843116
:100818006424833101302000AD070030AE3DFB2B4E
:100828002000A9002908FD007D08A800A51F2C2C80
:100838002D30FD002908860087017D0881000130E0
:10084800FD007D08A907A409A509A40A0319A50A9A
:100858002508F9002408F8002708FB002608FA00F4
:100868002908853176252000280808008331A2232D
:1008780021008D1523008D1121000D1123000D116C
:1008880021000F1020008F0155303C008F00AA3046
:100898008F000F103D001A08E03914389A003C0008
:1008A8002408E0390B38A40055308F00AA308F0097
:1008B8000F1421008F0123008F0120008F010800F1
:1008C800F40074080F39F1007108F2007408F03967
:1008D800F1007108F30020000F157308F1000430CF
:1008E800F136890B742C71088331E02384312000A0
:1008F8008F153530F100F10B7F2C20008F11720815
:100908008331E023843120008F153530F100F10B5D
:100918008B2C20008F110800700871040319B72C64
:10092800F501F50AF11BA22C0130F035F10D890B08
:10093800992C0130F4007408F507962C710873029D
:10094800031DA82C70087202031CAE2C7008F2025A
:100958007108F33B0130F136F00C890BAF2C0130F4
:10096800F502031DA22C7308F1007208F0000800BC
:10097800F501F601700871040319EB2CF701F70A69
:10098800F11BD02C0130F035F10D890BC72C01304B
:10099800F4007408F707C42C0130F535F60D890BFF
:1009A800D12C71087302031DDB2C70087202031C22
:1009B800E22C7008F2027108F33B75140130F1362D
:1009C800F00C890BE32C0130F702031DD02C7608BC
:1009D800F1007508F0000800F7007703031D102DDB
:1009E80074087F3EF5007508FA007A08F5000430AF
:1009F800F536890BFC2C7508F6007608F8007A089D
:100A08000F39F5007508F90078088331CB23843154
:100A180079088331CB23080002307706031D0800CC
:100A28007408BF3EF5007508FA007A08F50004302E
:100A3800F536890B1C2D7508F6007608F8007A083B
:100A48000F39F5007508F90078088331CB23843114
:100A580079088331CB23080000308331E0238531C6
:100A68006830F500E430F400F40B382DF50B382D20
:100A7800000003308331CB2385311A30F500F8307C
:100A8800F400F40B452DF50B452D000003308331A0
:100A9800CB2385313A30F5002330F400F40B522D86
:100AA800F50B522D03308331CB238531023083314E
:100AB800CB23853102308331CB2385310830833114
:100AC800CB23853100308331CB2385310C30833102
:100AD800CB23853100308331CB23853106308331F8
:100AE800CB2308002000A3007908A1007808A00003
:100AF8007B08F1007A08F0002108F3002008F200D2
:100B08008431BC24853171082000A1007008A00040
:100B18000130FC007C08A30720082104031D7C2D5C
:100B280023088600870181010130A3027B08F100B8
:100B38007A08F0007908F3007808F20084319024EC
:100B480085317008FC007C082000A2007B08F100B9
:100B58007A08F0007908F3007808F2008431BC24A0
:100B680085317108F9007008F8000A302000220267
:100B7800031CC22D0730FC007C08A2073030FC00A3
:100B88007C08A2072208FC002308860087017C084D
:100B980081000130A30278087904031D9A2D0130E1
:100BA800FC007C08A30708002000A101F31FE92D21
:100BB800F009F109F209F309F00A0319F10A031916
:100BC800F20A0319F30AA101A10AF71FFA2DF40981
:100BD800F509F609F709F40A0319F50A0319F60ADB
:100BE8000319F70A0130F8007808A1060030A500BB
:100BF8000030A4000030A3000030A2007308720483
:100C0800710470040319432EA001A00AF31B182EC7
:100C18000130F035F10DF20DF30D890B0D2E013079
:100C2800F8007808A0070A2E0130A235A30DA40DFC
:100C3800A50D890B192E73087702031D2D2E720836
:100C48007602031D2D2E71087502031D2D2E7008C6
:100C58007402031C382E7008F4027108F53B720800
:100C6800F63B7308F73B22140130F336F20CF10C13
:100C7800F00C890B392E0130A002031D182E210813
:100C88000319512EA209A309A409A509A20A031947
:100C9800A30A0319A40A0319A50A2508F3002408BE
:100CA800F2002308F1002208F000080020002608BE
:100CB800AA002708AB002808AC002908AD000630B8
:100CC800AA35AB0DAC0DAD0D890B642E2D08F300C4
:100CD8002C08F2002B08F1002A08F0002608AE00C4
:100CE8002708AF002808B0002908B1000630AE3543
:100CF800AF0DB00DB10D890B7B2EAE09AF09B00950
:100D0800B109AE0A0319AF0A0319B00A0319B10AE7
:100D180000302E07F40024302F3DF500F430303D2C
:100D2800F6000030313DF7008531D825863171084D
:100D3800FA007008F90001307A02003003197902CC
:100D4800031CED2E20002608AA002708AB0028085F
:100D5800AC002908AD000430AA35AB0DAC0DAD0DC3
:100D6800890BB02E2D08F3002C08F2002B08F10097
:100D78002A08F0002608AE002708AF002808B000AF
:100D88002908B1000430AE35AF0DB00DB10D890B97
:100D9800C72EAE09AF09B009B109AE0A0319AF0AE7
:100DA8000319B00A0319B10A00302E07F4002430E1
:100DB8002F3DF500F430303DF6000030313DF700AE
:100DC8008531D82586317108FA007008F9002300AA
:100DD8001E1501307A020030031979020318080041
:100DE800790823009B001E129D1721008E170E17ED
:100DF80023001D169E16080084313A248731853158
:100E08003025873183319A238731F401F40A013080
:100E18008431F024873138302000AA008830AB00B4
:100E28008331F823873115302000BB004B30BA00DE
:100E3800D130B900B90B1E2FBA0B1E2FBB0B1E2FBA
:100E4800000000302000A9000030A8002530A700CD
:100E58008030A60086315A26873115302000BB0025
:100E68004B30BA00D130B900B90B382FBA0B382F34
:100E7800BB0B382F000083319A238731F401F40A21
:100E880001308431F024873128302000AA008830CE
:100E9800AB008331F823873115302000BB004B307D
:100EA800BA00D130B900B90B572FBA0B572FBB0B6B
:100EB800572F000083319A238731AA308331922338
:100EC8008731053083319223873130308331922343
:100ED8008731003083319223873101308331922367
:100EE800873102308331922387310A30833192234C
:100EF80087318331AB2387312000B900BA01390823
:100F0800BE003A08BF00AA30BE000030BF008331DF
:100F1800AB2387312000B9003E30BA000030BB0057
:100F280040083A07BC0041083B3DBD003C0886002C
:100F38003D088700390881000130C0070030C13DF5
:100F48000A30400641040319F42FC201C3014308C3
:100F5800803AB90080303902031DB42F06304202AE
:100F680003187D2F20004308803AB90080303902E9
:100F7800031DC02F01304202031CEE2FF401F40AB6
:100F880001308431F02487313E302000B900003030
:100F9800BA0042083907860043083A3D870001082D
:100FA800BB00BC013B08AF003C08B0008331B7234D
:100FB80087313D302000BB00E130BA007A30B900FB
:100FC800B90BE42FBA0BE42FBB0BE42F00328331AB
:100FD8009A23873101302000C2070030C33DAB2F70
:100FE800803102284430840000308500113083317C
:100FF8008C2320008731002F013400340034003462
:101008000A340034003400346434003400340034CA
:10101800E834033400340034103427340034003406
:10102800A034863401340034403442340F34003460
:1010380080349634983400340034E134F53405347F
:101048000034CA349A343B34533465346E346434CF
:1010580069346E346734203443346F346D346D34FE
:1010680061346E346434003453347434613472340B
:10107800743469346E34673420344E346F347734C2
:10108800003425346C3475342E34253436342E34FB
:0810980036346C347534003469
:020000040001F9
:04000E00A4D9FFDE94
:00000001FF
