:0400000080311C2807
:100008007E1480318B1E09280A281A280B1D0D28FA
:100018000E281A280B110630200095000130AD0774
:100028000030AE3D0030AF3D0030B03D7E100900DD
:1000380080311E282000AD01AE01AF01B0017E1055
:1000480020008031C1288031F720803173082000DA
:10005800AB007208AA007108A9007008A800482817
:100068008131342180317908F1007808F00081313C
:100078000B21803181312E2180317908F1007808F7
:10008800F00081310B2180317A082000A0007B0824
:10009800A100A201A3018031F720803120002808A7
:1000A8007002A4002908713BA5002A08723BA6002B
:1000B8002B08733BA70023082702031D6D2822087D
:1000C8002602031D6D2821082502031D6D2820081E
:1000D8002402031C7028712834288131342180318E
:1000E800080081311D2180310530F1000F30F0000A
:1000F800F130890B7D28F00B7D28F10B7D2800005D
:1001080021008E1123008E1122008E1121000D1066
:1001180023000D1025001E08FC3902389E00FC3013
:1001280028009E0507309D001E15CF302500930539
:100138001308F0390C3893000430910055303C0016
:100148008F00AA308F000F103D001808E0390C38D6
:10015800980055303C008F00AA308F000F14210002
:10016800951295111508F8390438950006302000C5
:1001780095000B118B168B17080080317520803184
:100188002000AC012C08FC00FD01FC35FD0D2630DB
:100198007C07840001307D3D80388500003FF800F1
:1001A800013FF900FA30FA000030FB0080312720C7
:1001B80080310130FC007C082000AC0704302C02A0
:1001C800031CE728E828C62822008E150B30FC00FF
:1001D8006230890BED28FC0BED28003222008E11CD
:1001E800C42880311C288B1320003008F7002F0802
:1001F800F6002E08F5002D08F4008B177708F30099
:100208007608F2007508F1007408F000080010295B
:1002180000320032003200320130F0020030F13B8F
:10022800700A031D1B29710A031D1B291C290C298F
:100238000800210019109910991119169916191703
:1002480099170800B434043470340434B4340434D2
:10025800EC34053425001308F0390C3893000800F5
:10026800F0302500930522000D100800FA34003400
:020000040001F9
:04000E00A419FF1E14
:00000001FF
