:08000000803102288731FD2F39
:100F72008731C127873121008F0120008F010800AE
:100F82002100191099109915191699161917991304
:100F920008008731B9278731F301F30AF201730898
:100FA20020008F007208031DD72FD82FE42F73352E
:100FB200F3007308031DDE2FDF2FEE2FF201F20A7A
:100FC2004030F300EE2F7336F3007308031DEA2F4F
:100FD200EB2FEE2FF201F301F30A0330F100083098
:100FE200F0007730890BF32FF00BF32FF10BF32F77
:0E0FF2000000D02F8031022820008731CA2F46
:020000040001F9
:04000E00A419FF1E14
:00000001FF
