:08000000803102288731FD2F39
:100CA80021001910991099111916991619179917E1
:100CB8000800F0002000111E622E632E5E2E7008C0
:100CC80023009A000800F401F501782E71087407D2
:100CD80084007208753D8500000886315D268631DE
:100CE8000130F4070030F53D71087407840072087C
:100CF800753D85001200031D822E832E6A2E080082
:100D08008631542686316830F000E430890B8A2E0B
:100D1800F00B8A2E003221008F1022008F10210044
:100D28008F0123008F0121000D1123000D11553073
:100D38003C008F00AA308F000F103D001A08E039E0
:100D480014389A003C002408E0390B38A4005530C8
:100D58008F00AA308F000F1421000C1423000C14EC
:100D680021001E088F3920389E009E171E11FC3066
:100D78009E0583309D059B019C01080020002608E4
:100D8800AA002708AB002808AC002908AD000630E7
:100D9800AA35AB0DAC0DAD0D890BCC2E2D08F3008B
:100DA8002C08F2002B08F1002A08F0002608AE00F3
:100DB8002708AF002808B0002908B1000630AE3572
:100DC800AF0DB00DB10D890BE32E0030B2004830E5
:100DD800B300E830B4000130B5002E08B2022F0885
:100DE800B33B3008B43B3108B53B3508F70034084D
:100DF800F6003308F5003208F40087316D27863194
:100E08007108FA007008F900790823009B001E1188
:100E18009F111E129D171D169E16080086318426E6
:100E2800873100302000A9000030A8004B30A7000F
:100E38000030A6008631C226873121001D141A30E1
:100E4800890B242F003221009D149D182C2F2D2F43
:100E5800292F1C082000B70021001B082000B6001D
:100E68003708803AFB0080307B02031D3D2F643039
:100E780036020318402F412F502F0630F1008830DA
:100E8800F2008631672687310B30F1008830F20096
:100E98008631672687315E2F0030F1008830F200F6
:100EA8008631672687310B30F1008830F2008631B1
:100EB800672687312930FC009630FB007F30890B8C
:100EC800632FFB0B632FFC0B632F0000212F803156
:100ED80002282000A101F31F722F732F802FF00921
:100EE800F109F209F309F00A0319F10A0319F20AE0
:100EF8000319F30AA101A10AF71F832F842F932F47
:100F0800F409F509F609F709F40A0319F50A0319AA
:100F1800F60A0319F70A0130F8007808A10600302C
:100F2800A5000030A4000030A3000030A200730820
:100F38007204710470040319A22FA32FE42FA001D7
:100F4800A00AB12F0130F035F10DF20DF30D890B28
:100F5800A72F0130F8007808A007F31FB42FB52F8A
:100F6800A62F0130A235A30DA40DA50D890BB62F10
:100F780073087702031DCA2F72087602031DCA2F51
:100F880071087502031DCA2F70087402031CCD2F47
:100F9800CE2FD72F7008F4027108F53B7208F63B84
:100FA8007308F73B22140130F336F20CF10CF00C05
:100FB800890BD82F0130A002031DE32FE42FB52F92
:100FC80021080319E82FE92FF42FA209A309A4097E
:100FD800A509A20A0319A30A0319A40A0319A50A51
:100FE8002508F3002408F2002308F1002208F00085
:100FF800080020008731122F4C3469346734683474
:10100800743400344434613472346B3400340A3438
:021018000034A2
:020000040001F9
:04000E00BC19FF1EFC
:00000001FF
