:0400000080311A2809
:100008007E1480310B1D09280A2810280130210090
:10001800E2070030E33D0B112000111C14281528BD
:1000280018281110960197017E10090080311C28AC
:1000380021008731FD278031E4002000E901EA0131
:10004800EB01EC01ED012100E201E3012030840025
:100058000130850020309531022580317E10200046
:100068008031362897314D27803133302100CB003D
:10007800D630CA00BF30C9009530C80042302000D1
:10008800A3001D30A200E930A100D530A000210056
:100098004B082000A70021004A082000A6002100E4
:1000A80049082000A500210048082000A40082314A
:1000B800F9228031200023082100CF0020002208E7
:1000C8002100CE00200021082100CD0020002008BA
:1000D8002100CC0022000E1620000E1B7428752863
:1000E8008E2803302000E6000830E5007730890BC1
:1000F8007B28E50B7B28E60B7B2820000E1B852838
:1001080086288E288E314926803120000E1F8D28A2
:100118008E2889288731EA27803171082100D70085
:100128007008D60029302000E6009630E5007F30C0
:10013800890B9C28E50B9C28E60B9C288731EA272D
:10014800803171082100D9007008D8005708590279
:10015800031DB028560858020318B328B428CE281F
:1001680062082000E600E50121005608200065022B
:10017800E700210057082000663BE80021005808E6
:10018800200067072100D40059082000683D21009D
:10019800D500D42856085802D4005708593BD50032
:1001A800E201E3013F302000BD008030BC00003098
:1001B800BB000030BA004130A3008030A2000030FC
:1001C800A1000030A00021005408F0005508F100FB
:1001D800F201F30100308731402780317308200095
:1001E800A7007208A6007108A5007008A400823153
:1001F800F922803120002308C1002208C00021080C
:10020800BF002008BE008C319F24803120003D08AB
:100218002100E10020003C082100E00020003B080C
:100228002100DF0020003A082100DE000030F30042
:100238000030F2000030F1000030F0006108F700F3
:100248006008F6005F08F5005E08F4008831CC20ED
:100258008031031830293129EF2A21006108200054
:10026800A300210060082000A20021005F082000F0
:10027800A10021005E082000A00021004F082000F6
:10028800A70021004E082000A60021004D082000EC
:10029800A50021004C082000A4008231F9228031F9
:1002A800200023082100D300200022082100D200CA
:1002B800200021082100D100200020082100D000C2
:1002C80061082000A300210060082000A20021008E
:1002D8005F082000A10021005E082000A000210086
:1002E80053082000A700210052082000A600210082
:1002F80051082000A500210050082000A4008231E8
:10030800F922803120002308BD002208BC00210802
:10031800BB002008BA003F30C1008030C000003068
:10032800BF000030BE008C319F24803120003D0882
:100338002100C30020003C082100C20020003B0827
:100348002100C10020003A082100C00049302000E7
:10035800A3007430A2002430A1000030A0002100C6
:1003680043082000A700210042082000A600210021
:1003780041082000A500210040082000A400823187
:10038800F9228031200023082100DD002000220806
:100398002100DC00200021082100DB0020002008CB
:1003A8002100DA0064082000E500E601E701E80121
:1003B8006808F3006708F2006608F1006508F000B5
:1003C800013087314027803173082000AB00720864
:1003D800AA007108A9007008A80021005D08200083
:1003E800AF0021005C082000AE0021005B0820005F
:1003F800AD0021005A082000AC009531CD25803190
:1004080020002B082100DD0020002A082100DC0044
:10041800200029082100DB00200028082100DA003C
:100428004430F3007930F200C030F1000030F000C1
:100438005D08F7005C08F6005B08F5005A08F40050
:100448008831CC20803103182A2A2B2AA32A443049
:100458002000BD007A30BC000030BB000030BA007C
:1004680021005D082000C10021005C082000C000B8
:1004780021005B082000BF0021005A082000BE00B0
:100488008C319F24803120003D082100C7002000C6
:100498003C082100C60020003B082100C5002000C0
:1004A8003A082100C400B830F1009830F2009531C4
:1004B80074258031210061082000BD0021006008FA
:1004C8002000BC0021005F082000BB0021005E085E
:1004D8002000BA0088315B20803120003D08CC0024
:1004E8003C08CB003B08CA003A08C90095313F25B3
:1004F80080319230F1009830F200953174258031C6
:10050800210047082000D600210046082000D50019
:10051800210045082000D400210044082000D30011
:100528000330D7000030D800953126258031763049
:10053800F1009830F2009531742580316E28B8307A
:10054800F1009830F200953174258031210061085E
:100558002000BD00210060082000BC0021005F08C9
:100568002000BB0021005E082000BA0088315B2013
:10057800803120003D08CC003C08CB003B08CA0075
:100588003A08C90095313F258031A530F1009830EF
:10059800F20095317425803121005D082000D600D5
:1005A80021005C082000D50021005B082000D40051
:1005B80021005A082000D3000230D7000030D800AC
:1005C8009531262580317630F1009830F20095314A
:1005D800742580316E287830F1009830F20095311A
:1005E800742580316E2880311A282000230880392C
:1005F800AD002335B300A21F022B032B042B3314A9
:1006080033080319082B092B182B330A031D0D2B4C
:100618000E2B162B0030A3000030A2000030A100E2
:100628000030A000A217202B0030A3000030A20049
:100638000030A1000030A00027088039A800280851
:10064800AD062735B200A61F2A2B2B2B2C2B3214D4
:1006580032080319302B312B402B320A031D352B5E
:10066800362B3E2B0030A7000030A6000030A50036
:100678000030A400A617482B0030A7000030A600C1
:100688000030A5000030A400320803194C2B4D2B74
:10069800522B3308031D512B522B5B2B0030A30028
:1006A8000030A2000030A1000030A000332D200847
:1006B800F00026089531ED25823171082000B90037
:1006C8007008B8003808A800A901AA01AB012B08D6
:1006D800B1002A08B0002908AF002808AE00390880
:1006E800A800A901AA01AB012B08B7002A08B60087
:1006F8002908B5002808B4002108F000250895311C
:10070800ED25823171082000B9007008B80038085A
:10071800A800A901AA01AB012808AE072908AF3D26
:100728002A08B03D2B08B13D3908A800A901AA0143
:10073800AB012808B4072908B53D2A08B63D2B089F
:10074800B73D2208F00024089531ED258231710863
:100758002000B9007008B8003808A800A901AA014B
:10076800AB012808AE072908AF3D2A08B03D2B0881
:10077800B13D3908A800A901AA01AB012808B407AE
:100788002908B53D2A08B63D2B08B73D0830AE35D7
:10079800AF0DB00DB10D890BCB2B2108F00024084B
:1007A8009531ED25823171082000B9007008B80034
:1007B8003808AE073908AF3D0030B03DB13D2008DC
:1007C800F00025089531ED25823171082000B90027
:1007D8007008B8003808AE073908AF3D0030B03DA2
:1007E800B13D0830AE35AF0DB00DB10D890BF62B0C
:1007F8002008F00024089531ED2582317108200089
:10080800B9007008B8003808AE073908AF3D0030A5
:10081800B03DB13D2108F00026089531ED25823123
:1008280071082000B9007008B8003808B407390802
:10083800B53D0030B63DB73D2208F000250895319A
:10084800ED25823171082000B9007008B800380819
:10085800B4073908B53D0030B63DB73D2208F00071
:1008680026089531ED25823171082000B9007008FD
:10087800B8003808A8003908A900AA01AB01083057
:10088800A835A90DAA0DAB0D890B442C2808B4076F
:100898002908B53D2A08B63D2B08B73D2E08A80003
:1008A8002F08A9003008AA003108AB001830AB3671
:1008B800AA0CA90CA80C890B5B2C2808B4072908DA
:1008C800B53D2A08B63D2B08B73D0830AE35AF0D0B
:1008D800B00DB10D890B6A2C33083207A800A901A5
:1008E800A90D2808823EB800FF30293DB900932C95
:1008F8000130B435B50DB60DB70D890B7D2CB11F80
:10090800862C872C882C34140130AE35AF0DB00DF1
:10091800B10D890B892CFF30B807FF30B93DB61FE0
:10092800962C972C7C2CB201B11F9B2C9C2CB82C9C
:10093800FF302E05A800FF302F05A900FF30300535
:10094800AA007F303105AB002B082A0429042804AB
:100958000319AF2CB02CB32CB201B20AB82C341C3A
:10096800B62CB72CB82CB02C32080319BC2CBD2CD3
:10097800E52C0130B4070030B53D0030B63D0030FD
:10098800B73D371CC82CC92CE52C3408A8003508FD
:10099800A9003608AA003708AB000130AC00AB3715
:1009A800AA0CA90CA80CAC0BD32C2B08B7002A084E
:1009B800B6002908B5002808B4000130B80700308F
:1009C800B93D3908803AA80080302802031DEE2C72
:1009D800FF303802031CF12CF22CFC2C7F30200055
:1009E800B7008030B6000030B5000030B400272DC5
:1009F80020003908803AA80080302802031D062DFF
:100A0800013038020318092D0A2D152D0030200059
:100A1800B7000030B6000030B5000030B400AD01BA
:100A2800272D20003808B300FF30B405FF30B50586
:100A38007F30B6050030B705331C232D242D252D16
:100A4800B6173336B7002D08A8002808B7043708AA
:100A5800A3003608A2003508A1003408A000080049
:100A680073088039F8007335FA00F21F3C2D3D2DCC
:100A78003E2D7A147A080319422D432D532D7A0AF4
:100A8800031D472D482D502D0030F3000030F20093
:100A98000030F1000030F000F217F3015B2D003058
:100AA800F3000030F2000030F1000030F000770869
:100AB8008039F900790878060319632D642D652DAE
:100AC80078177735F900F61F6A2D6B2D6C2D791480
:100AD80079080319702D712D812D790A031D752D43
:100AE800762D7E2D0030F7000030F6000030F5003E
:100AF8000030F400F617F701892D0030F7000030B8
:100B0800F6000030F5000030F4007A087902031886
:100B18008E2D8F2DB62D781F922D932D982D8030E8
:100B28002000A0002008F8067A08FB007908FA00DF
:100B38007B08F9007008FB007408F0007B08F400DB
:100B48007108FB007508F1007B08F5007208FB00CE
:100B58007608F2007B08F6007308FB007708F300BC
:100B68007B08F700FB0179082000A000A1012108FB
:100B7800A3007A082002A200031CA3032308803ADA
:100B8800A40080302402031DCB2D1A302202031C3E
:100B9800CE2DCF2D012E7308720471047004031D2D
:100BA800D62DD82D0130D92D0030FB000030F300B0
:100BB8000030F2000030F1000030F0007908FA004F
:100BC800072E7B1CE82DE92DED2D7B360138FB0027
:100BD800EF2D0310FB0C701CF22DF32DF42DFB17D9
:100BE80001302000A000F337F20CF10CF00CA00B40
:100BF800F72D0130A0002008FA0779087A02031CB3
:100C0800062E072EE52D781B0A2E0B2E422E7A086B
:100C1800031D0F2E102E192E0030F3000030F200A5
:100C28000030F1000030F0003F2F7408F00775081D
:100C3800F13D7608F23D7708F33D731C242E252EEE
:100C4800CF2E7B1C282E292E2D2E7B360138FB001B
:100C58002F2E0310FB0C701C322E332E342EFB1754
:100C680001302000A000F337F20CF10CF00CA00BBF
:100C7800372E0130A0002008FA07CF2E7308803ADB
:100C88002000A0007708803A2002031D552E760820
:100C98007202031D552E75087102031D552E740826
:100CA80070020318582E592E912EFF30A000FF30E5
:100CB800A100FF30A200FF30A30070087402A40056
:100CC8007108753BA5007208763BA6007308773B50
:100CD800A7002408A0072508A13D2608A23D27084B
:100CE800A33D2308F3002208F2002108F1002008A0
:100CF800F0008030A0002008F806FB09FB0A7B08FA
:100D0800031D872E882E992E0130F0070030F13D03
:100D18000030F23D0030F33D992E7408F00275085A
:100D2800F13B7608F23B7708F33B730872047104D1
:100D38007004031DA02EA12ECB2E7B08031DA52E0B
:100D4800A62ECB2E0030F3000030F2000030F10068
:100D58000030F0003F2F0130F035F10DF20DF30DAA
:100D6800890BB02EFB1FB92EBA2EBB2E70147B1C1C
:100D7800BE2EBF2EC22E0314FB0DC42E0310FB0D76
:100D88007A080319C82EC92ECB2E0130FA02F21F99
:100D9800CE2ECF2EAF2EF901FB1FD32ED42EE22E4E
:100DA8007B087F390319D92EDA2EDD2EF901F90ACD
:100DB800E22E701CE02EE12EE22EDA2E79080319BD
:100DC800E62EE72E152F0130F0070030F13D0030F8
:100DD800F23D0030F33D731CF22EF32E152F7008F0
:100DE8002000A0007108A1007208A2007308A300E7
:100DF8000130A400A337A20CA10CA00CA40BFE2E5A
:100E08002308F3002208F2002108F1002008F0006E
:100E18007A0A0319102F112F152F0130A00020086E
:100E2800FA077A0A0319192F1A2F1F2F7A08031D98
:100E38001E2F1F2F2D2F0030F3000030F20000303E
:100E4800F1000030F0007A08031D2B2F2C2F2D2FD6
:100E5800F8017A1C302F312F332FF217382F7F30BB
:100E68002000A0002008F2057A36F300F81F3D2F75
:100E78003E2F3F2FF3170800F80078080319452F75
:100E8800462F5A2FF31F492F4A2F5A2F7009FA005D
:100E98007109FB007209FC007309FD00FA0A0319C5
:100EA800FB0A0319FC0A0319FD0A622F7308FD00E7
:100EB8007208FC007108FB007008FA0073087204DD
:100EC80071047004031D692F6A2F732F0030F3001B
:100ED8000030F2000030F1000030F000E92F9630C9
:100EE800F900812F0130F4007408F9070130FD364C
:100EF800FC0CFB0CFA0C890B7B2FFE307D05031DC7
:100F0800862F872F762F9B2F0130F4007408F9075E
:100F18000130FA070030FB3D0030FC3D0030FD3D5C
:100F28000130FD36FC0CFB0CFA0C890B952FFF30B9
:100F38007D05031DA02FA12F882FAB2F0130F902AB
:100F48000130FA35FB0DFC0DFD0D890BA52FFC1B9F
:100F5800AE2FAF2FB52F023079020318B42FB52F5B
:100F6800A22F7918B82FB92FC12FFF30FA05FF30FB
:100F7800FB057F30FC05FF30FD050310F90C7908EF
:100F8800F400F501F601F7011830F435F50DF60D0A
:100F9800F70D890BC92F7408FA047508FB04760845
:100FA800FC047708FD0478080319DB2FDC2FE12FF8
:100FB800F31FDF2FE02FE12FFD177D08F3007C08DA
:100FC800F2007B08F1007A08F000080020001508FC
:100FD800F200F30121006208F500F40172087407B9
:100FE800F6007308753DF7007608F0007708F10001
:060FF8000800623408004D
:101002000030FC000030FB000030FA000030F90034
:1010120073087204710470040319102811285228ED
:10102200FD01FD0A1F280130F035F10DF20DF30D1F
:10103200890B15280130F8007808FD07F31F2228D4
:10104200232814280130F935FA0DFB0DFC0D890B0C
:10105200242873087702031D382872087602031DBC
:10106200382871087502031D382870087402031CA1
:101072003B283C2845287008F4027108F53B7208A9
:10108200F63B7308F73B79140130F336F20CF10C9E
:10109200F00C890B46280130FD02031D512852280D
:1010A20023287C08F3007B08F2007A08F100790813
:1010B200F0000800031020003C0D3D0DC300430862
:1010C200031D642865286E280030BD000030BC0076
:1010D2000030BB000030BA00CB283A08BE003B0803
:1010E200BF003C08C0003D08C1001F30C136C00C23
:1010F200BF0CBE0C890B77283E08C200BC17FF301C
:10110200BA05FF30BB05FF30BC050030BD05963087
:10111200C302C31F8D288E28A6284308803A973E13
:10112200031894289528962865280130BD36BC0CF2
:10113200BB0CBA0C890B97280130BE003E08C307CE
:10114200031DA428A5289628BB2820304302031C8F
:10115200AB28AC28B62865280130BA35BB0DBC0DCA
:10116200BD0D890BAE280130C3024308031DBA2806
:10117200BB28AD2842080319BF28C028CB28BA09CA
:10118200BB09BC09BD09BA0A0319BB0A0319BC0A87
:101192000319BD0A080000307005F800003071051F
:1011A200F90080307205FA007F307305FB007B087E
:1011B2007A0479047804031DDF28E028E828003047
:1011C200F3000030F2000030F1000030F000003097
:1011D2007405F80000307505F90080307605FA00D4
:1011E2007F307705FB007B087A0479047804031DBD
:1011F200FB28FC2804290030F7000030F6000030FC
:10120200F5000030F400F31F0729082920290030D7
:10121200F8000030F9000030FA008030FB0070085E
:10122200F8027108F93B7208FA3B7308FB3B7B0832
:10123200F3007A08F2007908F1007808F000F71F4D
:10124200232924293C290030F8000030F90000301D
:10125200FA008030FB007408F8027508F93B760842
:10126200FA3B7708FB3B7B08F7007A08F60079081F
:10127200F5007808F4008030F3068030F70677082E
:101282007302031D4E2976087202031D4E2975084A
:101292007102031D4E297408700203185129522944
:1012A200542903105529031408002000A101F31F3B
:1012B2005B295C296929F009F109F209F309F00AAD
:1012C2000319F10A0319F20A0319F30AA101A10A87
:1012D200F71F6C296D297C29F409F509F609F7092C
:1012E200F40A0319F50A0319F60A0319F70A013079
:1012F200F8007808A1060030A5000030A4000030F4
:10130200A3000030A2007308720471047004031970
:101312008B298C29CD29A001A00A9A290130F03508
:10132200F10DF20DF30D890B90290130F8007808C8
:10133200A007F31F9D299E298F290130A235A30DF5
:10134200A40DA50D890B9F2973087702031DB329EC
:1013520072087602031DB32971087502031DB329B1
:1013620070087402031CB629B729C0297008F40258
:101372007108F53B7208F63B7308F73B2214013003
:10138200F336F20CF10CF00C890BC1290130A002EA
:10139200031DCC29CD299E2921080319D129D2293F
:1013A200DD29A209A309A409A509A20A0319A30A0E
:1013B2000319A40A0319A50A2508F3002408F20058
:1013C2002308F1002208F00008002000A4000130E8
:1013D200A5000030A600FA1FEF29F029FE292408F3
:1013E20086008701403F84008501810A2D308000FC
:1013F200F909FA09F90A0319FA0A7A08A30079081D
:10140200A200242A0A30F0000030F1002000230854
:10141200F3002208F2009731A127893171082000D8
:10142200A3007008A2000A30F0000030F100260884
:10143200F3002508F2009531AE25893171082000AC
:10144200A6007008A5000A30F0000030F100230861
:10145200F3002208F2009731A12789317008710444
:10146200031D342A352A032A702A2608F10025088A
:10147200F0007A08F3007908F2009731A127893148
:1014820071082000A1007008A0002608F1002508BC
:10149200F0007A08F3007908F2009631FA268931D1
:1014A2007108FA007008F9000A30F0000030F1000B
:1014B20020002608F3002508F2009731A127893180
:1014C20071082000A6007008A50024088600870184
:1014D200403F84008501810A2008303E80002000C0
:1014E20025082604031D762A772A362A2408860030
:1014F2008701010886008701810108002000D100D0
:101502004708F3004608F2004508F1004408F000DD
:101512000030F7000030F6000030F5000030F40033
:101522008831CC208A310318972A982AB62A2000BB
:101532005108860087012D3081000130CA004A0817
:10154200D1074708F3004608F2004508F1004408B5
:10155200F00095311B258A3173082000C7007208FC
:10156200C6007108C5007008C40020004708BD000D
:101572004608BC004508BB004408BA0088315B201D
:101582008A3120003B08CE003A08CD004D08F00019
:101592004E08F100890D893B8909F200F300013000
:1015A200873140278A3173082000AB007208AA00F5
:1015B2007108A9007008A8004708AF004608AE00ED
:1015C2004508AD004408AC009531CD258A31200094
:1015D2002B08C7002A08C6002908C5002808C4002D
:1015E2005108D2004E08FA004D08F90052308931F4
:1015F200E6218A3120005208860087012E308100C0
:101602000130CA004A08D207CB01CC016D2B413010
:101612002000A3002030A2000030A1000030A00072
:101622004708A7004608A6004508A5004408A400EC
:101632008231F9228A3120002308C7002208C6001D
:101642002108C5002008C4004708BD004608BC00A8
:101652004508BB004408BA0088315B208A3120006B
:101662003B08D0003A08CF005208860087014F0895
:10167200303E81000130CA004A08D2074F08F0000C
:101682005008F100890D893B8909F200F30001300D
:10169200873140278A3173082000AB007208AA0004
:1016A2007108A9007008A8004708AF004608AE00FC
:1016B2004508AD004408AC009531CD258A312000A3
:1016C2002B08C7002A08C6002908C5002808C4003C
:1016D2000130CB070030CC3D4C08803ACA004908A3
:1016E200803A4A02031D772B48084B02031C7A2BCF
:1016F2007B2B082B200052088600870181010800FD
:101702002000A600200886008701403FA200413F3A
:10171200A30022088400230885001200253A031D35
:10172200932B942B862C2008860087010130810799
:1017320041310318810AE901EA010310003003185C
:101742000130ED00FF30EB00FF30EC002008860096
:101752008701403FAB00413FAC002B0884002C08BE
:1017620085000008AD00BF2B0130AB070030AC3D57
:10177200C72B6930AD00C72BAD01C72B2D086C3AC2
:101782000319B52B193A0319BA2BBD2B2B08840068
:101792002C0885001200753A031DD02BD12B7C2C0E
:1017A200F62B21088600870101088400850102309A
:1017B2008107003FA200013FA3002208A7002308DF
:1017C200A800A901AA01FE2B2108860087010108B1
:1017D2008400850104308107003FA700013FA80073
:1017E200023FA900033FAA00FE2B2D08693A031904
:1017F200D22B053A0319E52BFE2B2B08013EA20042
:1018020000302C3DA3002008860087012208C03F3B
:101812002308C13F732C2030AD000130AD022D08EA
:10182200203E8600013087000030F3000030F200D5
:101832000030F1000A30F0002A08F7002908F6000B
:101842002808F5002708F400963110268B3170081D
:10185200303E81000030F3000030F2000030F10031
:101862000A30F00020002A08F7002908F6002808AC
:10187200F5002708F400883101208B31730820001D
:10188200AA007208A9007108A8007008A7002A0817
:1018920029042804270403194F2C502C6C2C2D08E2
:1018A200031D542C552C0E2C6C2C2D08203E86002A
:1018B200013087000108A200A3012208F0002308DA
:1018C200F1002608F20096315A268B3101302000B1
:1018D200A2002208AD0720302D06031D712C722CA8
:1018E200562C9E2C2B0884002C0885000008753A83
:1018F20003190C2C7C2C2000200886008701013063
:10190200810741310318810A9E2C20088600870135
:10191200403FA200413FA300220884002308850023
:101922000008A400A5012408F0002508F1002608FB
:10193200F20096315A268B317C2C08002000410897
:101942008039CB004135D200C01FA82CA92CAA2C6B
:10195200521452080319AE2CAF2CBF2C520A031D8D
:10196200B32CB42CBC2C0030C1000030C0000030BD
:10197200BF000030BE00C017C101C72C0030C1003B
:101982000030C0000030BF000030BE003D0880398A
:10199200C2004208CB063D35D300BC1FD12CD22C4D
:1019A200D32C531453080319D72CD82CE82C530AE0
:1019B200031DDC2CDD2CE52C0030BD000030BC000A
:1019C2000030BB000030BA00BC17BD01F02C003063
:1019D200BD000030BC000030BB000030BA003D0842
:1019E2003C043B043A04031DF72CF82C112D003063
:1019F200C1000030C0000030BF000030BE008030A7
:101A0200C0047F30C1044B08C2004208C10441082F
:101A1200BD004008BC003F08BB003E08BA00482E8B
:101A22005208031D152D162D1F2D0030BD0000304C
:101A3200BC000030BB000030BA00482E5208C20081
:101A4200C3014308C50053084202C400031CC50376
:101A520044087F3ECC000030453DCD004108CA001D
:101A62004008C9003F08C8003E08C7000030C10056
:101A72000030C0000030BF000030BE000030D10096
:101A82000030D0000030CF000030CE00D301872DCF
:101A9200530803194D2D4E2D682D0130C735C80D41
:101AA200C90DCA0D890B4F2D0130BE35BF0DC00DBA
:101AB200C10D890B562DD11F5F2D602D612D3E1456
:101AC2000130CE35CF0DD00DD10D890B622D3D08E1
:101AD2004A02031D762D3C084902031D762D3B0860
:101AE2004802031D762D3A084702031C792D7A2DF0
:101AF200832D51173A08C7023B08C83B3C08C93B33
:101B02003D08CA3B0130C2004208D3071A305302D3
:101B1200031C8C2D8D2D492D4A0849044804470485
:101B22000319942D952DAE2D4E14AE2D0130BE35D8
:101B3200BF0DC00DC10D890B982DD11FA12DA22D56
:101B4200A32D3E140130CE35CF0DD00DD10D890B12
:101B5200A42DFF30CC07FF30CD3DC01FB12DB22DDB
:101B6200972DD301D11FB62DB72DD32DFF304E05A2
:101B7200C200FF304F05C300FF305005C4007F3064
:101B82005105C50045084404430442040319CA2D03
:101B9200CB2DCE2DD301D30AD32D3E1CD12DD22D48
:101BA200D32DCB2D53080319D72DD82D002E01305C
:101BB200BE070030BF3D0030C03D0030C13D411C7A
:101BC200E32DE42D002E3E08C2003F08C30040086A
:101BD200C4004108C5000130C600C537C40CC30C9F
:101BE200C20CC60BEE2D4508C1004408C0004308D4
:101BF200BF004208BE000130CC070030CD3D4D0889
:101C0200803AC20080304202031D092EFF304C028E
:101C1200031C0C2E0D2E1A2EFF302000CC0000309B
:101C2200CD000030C1000030C0000030BF000030E5
:101C3200BE0020004D08803AC20080304202031DDF
:101C4200242E01304C020318272E282E342E200079
:101C5200CC01CD010030C1000030C0000030BF0017
:101C62000030BE00CB0120004C08D200521C3A2E9C
:101C72003B2E3D2EC017412E7F30C2004208C005C8
:101C82005236C1004B08C2004208C104082D0800A8
:101C92005B30F1009830F200953174258E311530A9
:101CA2002000E2004B30E100BE30890B562EE10BE2
:101CB200562EE20B562E00008731EA278E3171082C
:101CC2002100B7007008B60029302000E2009630EB
:101CD200E1007F30890B6B2EE10B6B2EE20B6B2E3A
:101CE2008731EA278E3171082100B9007008B800E7
:101CF20037083902031D7F2E360838020318822E58
:101D0200832E9D2E62082000E200E10121003608A8
:101D120020006102E300210037082000623BE4005A
:101D220021003808200063072100B0003908200094
:101D3200643D2100B100A32E36083802B0003708F6
:101D4200393BB100E201E3013F302000BD008030A9
:101D5200BC000030BB000030BA004130A30080302C
:101D6200A2000030A1000030A00021003008F000E5
:101D72003108F100F201F3010030873140278E3142
:101D820073082000A7007208A6007108A500700859
:101D9200A4008231F9228E3120002308C1002208DA
:101DA200C0002108BF002008BE008C319F248E3164
:101DB20020003D082100B50020003C082100B400AD
:101DC20020003B082100B30020003A082100B200A5
:101DD2000030F3000030F2000030F1000030F0007B
:101DE2003508F7003408F6003308F5003208F4002D
:101DF2008831CC208E310318FF2E002FF82F33307C
:101E02002100A300D630A200BF30A1009530A0006F
:101E120042302000A3001D30A200E930A100D530DD
:101E2200A000210023082000A70021002208200092
:101E3200A600210021082000A50021002008200082
:101E4200A4008231F9228E31200023082100A7004C
:101E5200200022082100A600200021082100A50060
:101E6200200020082100A40035082000A300210042
:101E720034082000A200210033082000A100210024
:101E820032082000A000210027082000A70021001E
:101E920026082000A600210025082000A500210018
:101EA20024082000A4008231F9228E312000230868
:101EB2002100AF00200022082100AE0020002108EE
:101EC2002100AD00200020082100AC0035082000D0
:101ED200A300210034082000A200210033082000C2
:101EE200A100210032082000A00021002F082000BC
:101EF200A70021002E082000A60021002D082000A6
:101F0200A50021002C082000A4008231F9228E3184
:101F120020002308BD002208BC002108BB002008C5
:101F2200BA003F30C1008030C0000030BF00003036
:101F3200BE008C319F248E3120003D082100AB0071
:101F420020003C082100AA0020003B082100A90033
:101F520020003A082100A8002B082000A700210039
:101F62002A082000A600210029082000A50021003F
:101F720028082000A4004930A3007430A2002430B5
:101F8200A1000030A0008231F9228E312000230806
:101F9200BD002208BC002108BB002008BA0088311D
:101FA2005B208E3120003A082100E4003730F10036
:101FB2009830F200953174258E312100640820009A
:101FC200E100E201E301E4016408CC006308CB0014
:101FD2006208CA006108C90095313F258E3176300A
:101FE200F1009830F200953174258E31FF2F0030C8
:0E1FF200F1009830F200953174258E31080010
:102A0400640080010131890B032D00342100191069
:102A14009910991119169916191799170800F000A9
:102A24002000111E162D172D122D700823009A0058
:102A3400080073087204710470040319222D232DF5
:102A4400252D8030F306080020005608C7005508DD
:102A5400C6005408C5005308C4005808C9005708E4
:102A6400C800A0308A317F229531A030F1000030B7
:102A7400F2009531742595310800C9302000B50065
:102A84009830B6004C08BA004B08B9004A08B800A0
:102A94004908B7004D309531912595314D30F100FD
:102AA4000030F20095317425953108002000B20001
:102AB4002F08B4002E08B300672D3330A00030086F
:102AC400A10032088B318123953120003308840022
:102AD400340885001200031D702D712D5F2DAE0189
:102AE400AF010800F401F501852D71087407840015
:102AF4007208753D85000008953111259531013026
:102B0400F4070030F53D7108740784007208753DC0
:102B140085001200031D8F2D902D772D08002000B5
:102B2400BD003730BC003D08BE00C001C101C70173
:102B3400C8013608AF003508AE003C30B0003E3066
:102B4400953158259531200040083D07BB003B08CE
:102B54008600870181010800F401F501701CB32D82
:102B6400B42DB82D7208F4077308F53D0130F23521
:102B7400F30D890BB92D0130F136F00C890BBE2D04
:102B840070087104031DC72DC82DB02D7508F10000
:102B94007408F000080080302000AB062F08F30012
:102BA4002E08F2002D08F1002C08F0002B08F70085
:102BB4002A08F6002908F5002808F4008531342590
:102BC400953173082000AB007208AA007108A900AF
:102BD4007008A8000800F800F401F5017008F2007C
:102BE400F3017208F6007308F700781CFA2DFB2D28
:102BF400FF2D7608F4077708F53D0130F635F70D1B
:102C0400890B002E0310F80C7808031D0A2E0B2ED6
:102C1400F72D7508F1007408F000080073087204B9
:102C2400710470040319172E182E512EF901F90A94
:102C3400262E0130F035F10DF20DF30D890B1C2E0B
:102C44000130F8007808F907F31F292E2A2E1B2ECD
:102C540073087702031D382E72087602031D382E7E
:102C640071087502031D382E70087402031C3B2E74
:102C74003C2E442E7008F4027108F53B7208F63BB2
:102C84007308F73B0130F336F20CF10CF00C890BAE
:102C9400452E0130F902031D502E512E2A2E77089D
:102CA400F3007608F2007508F1007408F0000800DB
:102CB400720803195E2E5F2E642E7208031D632EA4
:102CC400642E692E70088731FE279631A92E72086A
:102CD400093E86008701160001040319722E732E23
:102CE400912E7208093E86008701403FF300413F60
:102CF400F4007208023E86008701403FF500413F20
:102D0400F6007608803AF7007408803A7702031DCB
:102D14008D2E730875020318902E912EA92E720819
:102D2400860087017208023E8400850100080107BD
:102D3400F300730886008701700881007208023E60
:102D4400860087010130810741310318810A080098
:102D540020002608AA002708AB002808AC00290890
:102D6400AD000630AA35AB0DAC0DAD0D890BB42EFC
:102D74002D08F3002C08F2002B08F1002A08F000BB
:102D84002608AE002708AF002808B0002908B100C3
:102D94000630AE35AF0DB00DB10D890BCB2E003022
:102DA400B2004830B300E830B4000130B5002E085A
:102DB400B2022F08B33B3008B43B3108B53B3508A9
:102DC400F7003408F6003308F5003208F4008931BE
:102DD400562196317108FA007008F9007908230029
:102DE4009B001E119F111E129D171D169E16080092
:102DF400F601F31FFE2EFF2E062FF209F309F20A45
:102E04000319F30AF601F60AF11F092F0A2F0F2FEF
:102E1400F009F109F00A0319F10A700871040319A1
:102E2400142F152F3E2FF501F50A212F0130F0350F
:102E3400F10D890B192F0130F4007408F507F11F07
:102E4400242F252F182F71087302031D2B2F7008B0
:102E54007202031C2E2F2F2F332F7008F2027108D9
:102E6400F33B0130F136F00C890B342F0130F502BD
:102E7400031D3D2F3E2F252F76080319422F432F84
:102E8400482FF209F309F20A0319F30A7308F1004F
:102E94007208F00008009531082597316830FB006E
:102EA400E430890B532FFB0B532F003255303C0079
:102EB4008F00AA308F000F103D001A08E039143833
:102EC4009A003C002408E0390B38A4001108E039CA
:102ED4000838910055308F00AA308F000F1421005C
:102EE4000D1123000D1121000E1223000E122100DA
:102EF4000E1723000E1321000D1423000D102100C2
:102F0400951695111508F839033895002000950198
:102F14008B160B1131309800960197012100111482
:102F24000B178B1700302000A9000030A8004B308D
:102F3400A7000030A6009631AA2697310800F601B2
:102F4400F11FA52FA62FAD2FF009F109F00A0319DF
:102F5400F10AF601F60AF31FB02FB12FBA2FF209C6
:102F6400F309F20A0319F30A0130F4007408F606AF
:102F7400F701F801700871040319C12FC22FF12F52
:102F8400F501F50ACE2F0130F035F10D890BC62F6E
:102F94000130F4007408F507F11FD12FD22FC52F8B
:102FA4000130F735F80D890BD32F71087302031D17
:102FB400DD2F70087202031CE02FE12FE62F70084A
:102FC400F2027108F33B77140130F136F00C890BEF
:102FD400E72F0130F502031DF02FF12FD22F7608D1
:102FE4000319F52FF62FFB2FF709F809F70A031930
:102FF400F80A7808F1007708F000080045347234C4
:1030040072346F3472343A34203455346E3461344B
:1030140062346C346534203474346F3420346D3449
:1030240065346134733475347234653420346634F1
:10303400723465347134753465346E346334793480
:10304400203464347534723469346E346734203413
:10305400633461346C34693462347234613474348A
:1030640069346F346E340A340034433461346C345C
:103074006934623472346134743469346F346E3454
:10308400203463346F346D3470346C346534743488
:1030940065342E3420344F346634663473346534E6
:1030A4007434203428347534483429343A34203480
:1030B4000034433461346C346934623472346134BE
:1030C400743469346F346E3420346D346F34643442
:1030D4006534203473347434613472347434653434
:1030E40064342E342E342E340A340034453472348D
:1030F40072346F3472343A34203446347234653462
:103104007134753465346E346334793420347434F2
:103114006F346F3420346C346F3477340A340034B1
:10312400203449346E346434753463347434613413
:103134006E3463346534203428346D34483429348F
:103144003A3420340034203449346E3464347534D1
:103154006334743461346E34633465342034283415
:103164007534483429343A342034003446347234C3
:1031740065347134753465346E3463347934203491
:10318400283448347A3429343A3420340034253409
:063194006C3475340034B8
:020000040001F9
:04000E00A419FF1E14
:00000001FF
