:08000000803102288731FD2F39
:100F8A0021001910991099111916991619179917FC
:100F9A0008008731E427873122008E157A30F30062
:100FAA00C130F2008230890BD82FF20BD82FF30B05
:100FBA00D82F22008E116300D12F80310228873169
:100FCA00C52787310530F1000F30F000F130890B69
:100FDA00EC2FF00BEC2FF10BEC2F000021008E11FF
:100FEA0022008E1121001708C1391C389700080009
:060FFA0020008731CE2F1C
:020000040001F9
:04000E00BC19FF1EFC
:00000001FF
