:08000000803102288731F62F40
:1004860020008F100F100F14080064008001013146
:10049600890B492A003420009111240016142000EB
:1004A60091190800522A20009111240016152000E7
:1004B600911908005A2A2000911170082400910011
:1004C600200091190800632A210019109910991526
:1004D6001916991619179913080024001508F039EA
:1004E600083895009516273092003430F000F23027
:1004F600890B7B2AF00B7B2A0800F300F201731CA0
:10050600882A7008F1007108F2070310F00D031035
:10051600F30C7308031D822A72080800F100F20129
:10052600083072020318080020000F1171180F1509
:100536008F108F140310F10C0130F0007008F207D1
:10054600932A7C0884007D088500120003190800A0
:100556007C0884007D088500000885310E258231DF
:100566000130FC070030FD3DA42AF40082314E2202
:1005760082317830F0000030F10082315E22823123
:100586000030F000F10082315E2282317408F20000
:10059600F3017208F0007308F10082315E228231A5
:1005A600823156220800F20121000F1520000F1596
:1005B600F301083073020318F72A8F148F100030E6
:1005C6000F190130F100F10CF101F10C0310F20CDE
:1005D6007108F0007008F2040130F0007008F307AB
:1005E60008307302031CE02A21000F11720808006C
:1005F600F9007908B03E8231B82282317508F600DA
:100606000230F635FF3E031D042B76350F39823155
:10061600B82282317508F600F701F635F70DF63582
:10062600F70DF635F70D0430F800770DF70CF60CDC
:10063600F80B182B76080F39103E8231B8220800C5
:1006460082316722833123000E128E1221000E168C
:100656008E1655303C008F00AA308F000F103D00DB
:100666002408E0391138A4003C002108E039143888
:10067600A1002008E0391538A0003D002508E03922
:100686001038A50055303C008F00AA308F000F149B
:1006960021008F0123008F0108002000A1000A30ED
:1006A600F0000030F1002108F900FA017908F200A3
:1006B6007A08F3008331F42383317008FB007B084A
:1006C6002000A2000A30F9007908F00022088231E1
:1006D60080228331FF3A013E20002107FA007A0882
:1006E600A0002208F9000330F935FF3E031D772BE1
:1006F6007935200408002000B401B5010030350228
:1007060008300319340203180800B601B701003097
:1007160037021030031936020318A92B3608FC00DD
:100726007C08F50034088231FB2283312030853184
:100736000E25833101302000B6070030B73D00306A
:100746003702103003193602031C912B0130B4070F
:100756000030B53D812B2000A101FC1FB92BFB0900
:10076600FC09FB0A0319FC0AA101A10AFA1FC02B06
:10077600F909FA09F90A0319FA0A79087A04031930
:10078600E72BA001A00AFA1BD22B0130F935FA0D8E
:10079600890BC92B0130FD007D08A007C62B7A08FE
:1007A6007C02031DD82B79087B02031CDE2B7908FB
:1007B600FB027A08FC3B0130FA36F90C890BDF2B79
:1007C6000130A002031DD22B21080319EF2BFB09D0
:1007D600FC09FB0A0319FC0A7C08FA007B08F900ED
:1007E6000800F601F11FFE2BF009F109F00A0319C2
:1007F600F10AF601F60AF31F092CF209F309F20AC7
:100806000319F30A0130F4007408F606F701F8013B
:10081600700871040319382CF501F50AF11B1D2C1B
:100826000130F035F10D890B142C0130F4007408F9
:10083600F507112C0130F735F80D890B1E2C7108C0
:100846007302031D282C70087202031C2F2C7008DB
:10085600F2027108F33B77140130F136F00C890B84
:10086600302C0130F502031D1D2C76080319402C8F
:10087600F709F809F70A0319F80A7808F100770862
:10088600F0000800AE308231B8228431D530823192
:10089600B822843180308231B8228431A830823146
:1008A600B82284311F308231B8228431D33082316C
:1008B600B822843100308231B8228431403082310E
:1008C600B82284318D308231B8228431AF30823102
:1008D600B822843120308231B8228431003082310E
:1008E600B8228431A1308231B8228431C8308231B5
:1008F600B8228431DA308231B82284310230823132
:10090600B822843181308231B82284318F308231ED
:10091600B8228431D9308231B8228431F130823123
:10092600B8228431DB308231B822843140308231C2
:10093600B8228431A4308231B8228431A630823183
:10094600B8228431AF308231B8220800F80071082D
:10095600FA007008F9007808F4007408FB007B08B8
:10096600F4000030F50075087A02031DBC2C7408EB
:1009760079020318F22C72087907F40073087A3D9D
:10098600F5007B08F6000030F70075087702031DB6
:10099600CE2C740876020318F22C7208F907730835
:1009A600FA3D7208F4007408FB070130F9020030C2
:1009B600FA3B790884007A0885000008F4000130C3
:1009C600FB027B0886008701740881000130F20271
:1009D6000030F33B7208730403190800D82C720820
:1009E600730403190800790884007A088500000852
:1009F600F4007B0886008701740881000130F9073E
:100A06000030FA3D0130F4007408FB070130F202B1
:100A16000030F33BF22C2000B30020303302031CDD
:100A2600182D80303302031C1C2D2030A000200816
:100A3600B3003308A000A101A035A10DA035A10D7A
:100A4600A035A10D2008003EA200FF30213DA300E5
:100A56002830A4008830A50022082407AF00230808
:100A6600253DB0004030A0002008A6003008F10067
:100A76002F08F0000830F2000030F30027308431F0
:100A8600A924853182314E2285317830F00000303C
:100A9600F10082315E2285314030F0000030F100F5
:100AA60082315E22853101302000B1000030B20073
:100AB6003208803AA00080302002031D642D0930E0
:100AC60031020318852D20003108263E8600870155
:100AD6000108A000A1012008F0002108F1008231E0
:100AE6005E22853101302000B1070030B23D320868
:100AF600803AA00080302002031D832D0930310288
:100B0600031C662D8231562208002000AA002A08FE
:100B1600833150238531FC007C082000AB0023087C
:100B2600833150238531FC007C082000AC0024086A
:100B3600833150238531FC007C082000AD00250858
:100B4600833150238531FC007C082000A90026084B
:100B5600833150238531FC007C082000AE00270835
:100B6600833150238531FC007C082000AF00280823
:100B7600833150238531FC007C082000B00082318F
:100B8600432285318E308231912285310030823187
:100B960091228531823143228531903082319122F2
:100BA6008531AB30823191228531823143228531C4
:100BB600BE3082319122853120002B08823191226C
:100BC600853120002C0882319122853120002D08A4
:100BD600823191228531200025088231912285318A
:100BE60020002E0882319122853120002F08823183
:100BF60091228531200030088231912285310030E2
:100C060082319122853182314322080083312323A8
:100C160086318231702286310B302000B9002630B1
:100C2600B8005D30890B152EB80B152EB90B152E95
:100C360000328431452486310B302000B90026303D
:100C4600B8005D30890B252EB80B252EB90B252E45
:100C5600003283317E2386310B302000B9002630E6
:100C6600B8005D30890B352EB80B352EB90B352EF5
:100C760000322000CA013B30B8003808CB000A30E9
:100C8600B8003808CC000230B8003808CD00123061
:100C9600B8003808CE000430B8003808CF0011304C
:100CA600B8003808D0004B08B8003808A3004C0834
:100CB600B9003908A4004D08BA003A08A5004E0844
:100CC600BB003B08A6004F08BC003C08A700500824
:100CD600BD003D08A8004A08853188258631823145
:100CE60043228631BF308231912286318231D6222B
:100CF60086312000B8003808D6008231D6228631E7
:100D06002000B8003808D5008231D622863120006E
:100D1600B8003808D4008231D62286312000B800C7
:100D26003808BE008231D62286312000B800380845
:100D3600D3008231D62286312000B8003808D2008E
:100D46008231D62286312000B8003808D10082319F
:100D5600432286310A302000B8003808F0005108D6
:100D6600B9000430B936890BB52E39088231802294
:100D760086312000BA003A08BF0051080F39B80082
:100D86003808BF070A30B8003808F0005208B90022
:100D96000430B936890BCC2E39088231802286314F
:100DA6002000BA003A08C00052080F39B8003808C7
:100DB600C0000A30B8003808F0005308B900043003
:100DC600B936890BE32E390882318022863120001C
:100DD600BA003A08C10053080F39B8003808C107ED
:100DE6000A30B8003808F0005408B9000430B936A3
:100DF600890BFA2E39088231802286312000BA000A
:100E06003A08D70054080F39B8003808D7070A300F
:100E1600B8003808F0005508B9000430B936890B17
:100E2600112F39088231802286312000BA003A0813
:100E3600D80055080F39B8003808D8070A30B80066
:100E46003808F0005608B9000430B936890B282F47
:100E560039088231802286312000BA003A08D9004A
:100E660056080F39B8003808D9070A30F90000309B
:100E7600FA000A30F0000030F1005708B800B90156
:100E86003808F2003908F3008331F42386317108FB
:100E9600FC007008FB008331AE2386317908303EB2
:100EA6002000BA003A08C2000A30F9000030FA0001
:100EB6005708B800B9013808FB003908FC0083312F
:100EC600AE2386317908303E2000BA003A08C300C6
:100ED6003A30B8003808C4000A30F9000030FA0089
:100EE6000A30F0000030F1005808B800B90138089F
:100EF600F2003908F3008331F42386317108FC00CF
:100F06007008FB008331AE2386317908303E20001D
:100F1600BA003A08C5000A30F9000030FA0058084D
:100F2600B800B9013808FB003908FC008331AE234C
:100F360086317908303E2000BA003A08C6003A30B9
:100F4600B8003808C7000A30F9000030FA000A3045
:100F5600F0000030F1005908B800B9013808F20075
:100F66003908F3008331F42386317108FC007008D8
:100F7600FB008331AE2386317908303E2000BA006B
:100F86003A08C8000A30F9000030FA005908B800DB
:100F9600B9013808FB003908FC008331AE238631DD
:100FA6007908303E2000BA003A08C900F501003041
:100FB6008231FB2286313330FC008B30FD008231DA
:100FC600A422863106302000B8003808F50000302B
:100FD6008231FB2286314230FC000030FD00823136
:100FE600A4228631722E5A308400003085001130DA
:100FF6008231482220008631092E01340034003423
:1010060000340A34003400340034643400340034CC
:101016000034E83403340034003410342734003408
:101026000034A034863401340034403442340F3462
:10103600003480349634983400340034E134F53486
:1010460005340034CA349A343B3400340034003456
:1010560000340034003400340034003400345F348B
:1010660000340034003400340034003400340734D3
:1010760000340734003400340034003414347F3430
:1010860014347F34143400340034003424342A34C5
:101096007F342A34123400340034003423341334B9
:1010A600083464346234003400340034363449344D
:1010B60055342234503400340034003400340534BE
:1010C6000334003400340034003400341C34223439
:1010D60041340034003400340034003441342234C6
:1010E6001C340034003400340034003408342A340C
:1010F6001C342A34083400340034003408340834EC
:101106003E3408340834003400340034A0346034EB
:101116000034003400340034003400340834083419
:101126000834083408340034003400346034603441
:1011360000340034003400340034003420341034D9
:101146000834043402340034003400343E3451345C
:10115600493445343E3400340034003400344234DB
:101166007F34403400340034003400346234513467
:10117600493449344634003400340034223441348E
:1011860049344934363400340034003418341434C5
:1011960012347F341034003400340034273445349C
:1011A6004534453439340034003400343C344A3450
:1011B6004934493430340034003400340134713455
:1011C60009340534033400340034003436344934E9
:1011D6004934493436340034003400340634493452
:1011E600493429341E340034003400340034363493
:1011F6003634003400340034003400340034AC3467
:101206006C340034003400340034003408341434B0
:10121600223441340034003400340034143414349D
:101226001434143414340034003400344134223479
:1012360014340834003400340034003402340134E9
:10124600513409340634003400340034323449341D
:10125600793441343E340034003400347E34093469
:10126600093409347E340034003400347F34493480
:101276004934493436340034003400343E34413481
:101286004134413422340034003400347F34413454
:10129600413422341C340034003400347F34493461
:1012A6004934493441340034003400347F3409343D
:1012B6000934093401340034003400343E344134F6
:1012C6004134513472340034003400347F340834ED
:1012D600083408347F3400340034003441347F3419
:1012E60041340034003400340034003420344034B7
:1012F60041343F3401340034003400347F34083440
:101306001434223441340034003400347F34403401
:101316004034403440340034003400347F340234E6
:101326000C3402347F340034003400347F34043407
:10133600083410347F340034003400343E344134F1
:10134600413441343E340034003400347F340934AF
:101356000934093406340034003400343E34413450
:10136600513421345E340034003400347F3409347F
:1013760019342934463400340034003426344934D0
:1013860049344934323400340034003401340134F1
:101396007F34013401340034003400343F344034A7
:1013A600403440343F340034003400341F34203499
:1013B600403420341F340034003400343F34403489
:1013C600383440343F340034003400346334143449
:1013D60008341434633400340034003403340434E1
:1013E6007834043403340034003400346134513426
:1013F6004934453443340034003400347F344134B6
:1014060041340034003400340034003402340434EF
:10141600083410342034003400340034413441346C
:101426007F34003400340034003400340434023491
:1014360001340234043400340034003480348034FF
:101446008034803480340034003400340134023473
:10145600043400340034003400340034203454346E
:101466005434543478340034003400347F344834EF
:10147600443444343834003400340034383444348A
:1014860044342834003400340034003438344434CE
:10149600443448347F34003400340034383454340F
:1014A60054345434183400340034003408347E3450
:1014B6000934023400340034003400341834A434BF
:1014C600A434A4347C340034003400347F3408342B
:1014D60004340434783400340034003400347D3469
:1014E6000034003400340034003400348034843452
:1014F6007D34003400340034003400347F3410343A
:1015060028344434003400340034003441347F3409
:101516004034003400340034003400347C34043465
:101526001834043478340034003400347C340834FD
:1015360004347C3400340034003400343834443409
:10154600443438340034003400340034FC34243459
:10155600243418340034003400340034183424346D
:101566002434FC34003400340034003400347C3439
:10157600083404340034003400340034483454341D
:1015860054342434003400340034003404347F34BA
:101596004434003400340034003400343C344034E5
:1015A60040347C3400340034003400341C3420349D
:1015B600403420341C340034003400343C3440348D
:1015C600303440343C34003400340034443428345D
:1015D6001034283444340034003400341C34A0342D
:1015E600A0347C3400340034003400344434643491
:1015F60054344C3444340034003400340834363423
:1016060041340034003400340034003400347F3474
:1016160000340034003400340034003441343634AD
:101626000834003400340034003400340234013409
:1016360001340234013400340034003402340534F9
:101646000534023400340034003425346C347534E7
:101656002E34253436342E3436346C347534003416
:10166600543469346D3465343A34203400342034CB
:0A16760020342034203420340034E6
:020000040001F9
:04000E00A4D9FFDE94
:00000001FF
