:08000000803102288731FD2F39
:10097600F10071088431CF2408004030240094002F
:10098600223095009201080020008F19C72C8F1D78
:10099600CA2C8F1D0800CC2CF0002400951370087B
:1009A6009100141CD42C110808002100191099106C
:1009B600991519169916191799130800F700760C48
:1009C6002200031C0F1103180F1577088431BB246E
:1009D6000800F601780880388431E1248431F60174
:1009E6007A0840388431E124080020002E08A5004A
:1009F6002D08A4000A30A6000030A7002F3085314C
:100A0600792584312000AA000030AB0085312325EA
:100A1600080021008F1122008F115E30F100803016
:100A2600F000F00B142DF10B142D000022008F1591
:100A36001A30F000F00B1D2D000021008F15080064
:100A460020002A0884002B088500120003190800DC
:100A560020002A0884002B088500000886318F268E
:100A6600853101302000AA070030AB3D232DF4016B
:100A7600F501701C422D7208F4077308F53D01302C
:100A8600F235F30D890B432D0130F136F00C890B4D
:100A9600482D70087104031D3C2D7508F10074087B
:100AA600F0000800F201F101083071020318772DF9
:100AB60020008F1D5B2D2730F000F00B602D0032DB
:100AC60020008F1D692D0314F20D6D2D7235F00077
:100AD6007008F2008F196D2D0130F0007008F107D3
:100AE60008307102031C5B2D720808002000A90063
:100AF6002908FD007D08A800A51F912D2D30FD00B9
:100B06002908860087017D0881000130FD007D08E7
:100B1600A907A409A509A40A0319A50A2508F90025
:100B26002408F8002708FB002608FA002908863161
:100B3600CE26200028080800700871040319C62D67
:100B4600F501F50AF11BB12D0130F035F10D890BD8
:100B5600A82D0130F4007408F507A52D710873025D
:100B6600031DB72D70087202031CBD2D7008F2021A
:100B76007108F33B0130F136F00C890BBE2D0130C4
:100B8600F502031DB12D7308F1007208F00008008C
:100B96002000A001A1012108803AFC0081307C02DE
:100BA600031DD72DF83020020318EF2DF601F60AA3
:100BB60000308431E124853101302000A007003067
:100BC600A13D2108803AFC0081307C02031DED2DF9
:100BD600F8302002031CD92D0030F800F90000304F
:100BE600FA00FB008431EC2408008431D8248531D6
:100BF60021008F1022008F1021008F0123008F010A
:100C06008E110E128E1221008E110E168E12553076
:100C16003C008F00AA308F000F102108E0391438ED
:100C2600A1003D002308E0391038A3002508E0396B
:100C36001138A50055303C008F00AA308F000F14E4
:100C46008431C0240800F501F60170087104031907
:100C5600552EF701F70AF11B3A2E0130F035F10D4A
:100C6600890B312E0130F4007408F7072E2E01305F
:100C7600F535F60D890B3B2E71087302031D452EC3
:100C860070087202031C4C2E7008F2027108F33BC6
:100C960075140130F136F00C890B4D2E0130F70238
:100CA600031D3A2E7608F1007508F000080068303A
:100CB600F900E430F800F80B5E2EF90B5E2E00000A
:100CC60022000F108F106830F900E430F800F80B9E
:100CD6006A2EF90B6A2E000022008F14F6012130CD
:100CE6008431E1248631F601C0308431E124863135
:100CF600F60106308431E1248631F6011330843161
:100D0600E1248631F60120308431E1248631F60172
:100D16000C308431E12408002000A000A101200845
:100D2600E03EF8007808A000A10105302102031872
:100D3600C82EF601F60A2108F800F9012008FA0083
:100D4600FB017A08F0007B08F1000530F200003064
:100D5600F30085313A25863178087007FC0079085A
:100D6600713DFD0000307C07840088307D3D8500A4
:100D760000088431E12486310130F800780820002B
:100D8600A10705302102031C9C2EF601F60A00304D
:100D96008431E12408002000A3007908A100780826
:100DA600A0007B08F1007A08F0002108F300200873
:100DB600F20086312626863171082000A1007008CF
:100DC600A0000130FC007C08A30720082104031DB5
:100DD600D42E23088600870181010130A3027B08F7
:100DE600F1007A08F0007908F3007808F2008531FE
:100DF6009F2586317008FC007C082000A2007B0835
:100E0600F1007A08F0007908F3007808F2008631DC
:100E1600262686317108F9007008F8000A3020008D
:100E26002202031C1A2F0730FC007C08A207303070
:100E3600FC007C08A2072208FC0023088600870124
:100E46007C0881000130A30278087904031DF22E84
:100E56000130FC007C08A30708008531F82587319E
:100E660086315A2687318531CB25873185310C2548
:100E760087318431C7248731853155258731200054
:100E8600B7003708C4008531552587312000B700E3
:100E96003708C1008531552587312000B70037084E
:100EA600C5008531552587312000B7003708C200B7
:100EB6008531552587312000B7003708C300F60174
:100EC60040308431E1248731F60180308431E124D9
:100ED6008731F1302000AA008930AB008531232507
:100EE6008731F60140308431E1248731F6019E30A6
:100EF6008431E124873120004408B700B80137085F
:100F0600AD003808AE008431F8248731F60141304F
:100F16008431E1248731F60180308431E124873140
:100F2600ED302000AA008930AB00853123258731BA
:100F3600F60141308431E1248731F6019E30843157
:100F4600E124873120004508B700B8013708AD0015
:100F56003808AE008431F824873120004208B700F3
:100F6600B8014508B900BA0144084107BB00BC01F5
:100F7600BC0D39083B07BD003A083C3DBE003708AA
:100F86003D07BF0038083E3DC00043083F06400409
:100F96000319DC2FF60154308431E1248731F60140
:100FA60080308431E1248731E7302000AA0089307F
:100FB600EA2FF60154308431E1248731F60180307E
:100FC6008431E1248731E0302000AA008930AB006B
:100FD60085312325873115302000B9004B30B80004
:100FE600D130B700B70BF52FB80BF52FB90BF52F8E
:100FF6000000362F20008731302F003400340034B3
:1010060000340034003400345F34003400340034DB
:10101600073400340734003414347F3414347F34F6
:10102600143424342A347F342A34123423341334C7
:1010360008346434623436344934553422345034F6
:101046000034053403340034003400341C342234B4
:10105600413400340034413422341C340034143416
:1010660008343E3408341434083408343E34083422
:101076000834003450343034003400340834083432
:1010860008340834083400346034603400340034E2
:10109600203410340834043402343E345134493494
:1010A60045343E34003442347F34403400344234D4
:1010B60061345134493446342134413445344B3457
:1010C60031341834143412347F3410342734453410
:1010D6004534453439343C344A344934493430345F
:1010E600013471340934053403343634493449340F
:1010F6004934363406344934493429341E340034EC
:101106003634363400340034003456343634003441
:101116000034083414342234413400341434143482
:10112600143414341434003441342234143408345E
:1011360002340134513409340634323449347934B2
:1011460041343E347E341134113411347E347F34CC
:1011560049344934493436343E34413441344134D7
:1011660022347F344134413422341C347F344934B0
:101176004934493441347F3409340934093401345B
:101186003E344134493449347A347F34083408349F
:1011960008347F34003441347F3441340034203401
:1011A600403441343F3401347F340834143422341B
:1011B60041347F3440344034403440347F34023448
:1011C6000C3402347F347F340434083410347F34D2
:1011D6003E344134413441343E347F340934093499
:1011E600093406343E344134513421345E347F347C
:1011F6000934193429344634463449344934493497
:101206003134013401347F34013401343F34403405
:10121600403440343F341F342034403420341F34AB
:101226003F344034383440343F3463341434083463
:1012360014346334073408347034083407346134A2
:10124600513449344534433400347F3441344134D5
:101256000034023404340834103420340034413469
:1012660041347F340034043402340134023404340B
:101276004034403440344034403400340134023485
:1012860004340034203454345434543478347F34A1
:10129600483444344434383438344434443444349C
:1012A600203438344434443448347F343834543465
:1012B60054345434183408347E3409340134023436
:1012C6000C345234523452343E347F3408340434AD
:1012D60004347834003444347D34403400342034CB
:1012E600403444343D3400347F341034283444349C
:1012F6000034003441347F34403400347C340434C8
:101306001834043478347C3408340434043478349F
:10131600383444344434443438347C341434143447
:101326001434083408341434143418347C347C34BB
:1013360008340434043408344834543454345434AB
:10134600203404343F344434403420343C34403474
:10135600403420347C341C342034403420341C3453
:101366003C344034303440343C3444342834103433
:10137600283444340C345034503450343C344434DF
:10138600643454344C3444340034083436344134F0
:101396000034003400347F340034003400344134E7
:1013A6003634083400341034083408341034083421
:1013B600783446344134463478344E346F342034ED
:1013C60045347234723400344534723472346F34B6
:1013D60072340034543465346D3400344834753412
:0413E6006D3400342E
:020000040001F9
:04000E00A4D9FFDE94
:00000001FF
