:08000000803102288731FD2F39
:100F86002100191099109911191699161917991700
:100F960008008731C32787310530F1000F30F00094
:100FA600F130890BD42FF00BD42FF10BD42F000086
:100FB60021008E110C1423000C1008008731CC2759
:100FC600873120000C1CE82FE92FEC2F22008E150C
:100FD600EE2F22008E110530F3000F30F200F130B3
:100FE600890BF32FF20BF32FF30BF32F0000E42FF3
:0A0FF6008031022820008731E12F2E
:020000040001F9
:04000E00A419FF1E14
:00000001FF
